S01700004763634170706C69636174696F6E332E7372656359
S11300000C9456000C9468000C9468000C946800DE
S11300100C9468000C9468000C9468000C946800BC
S11300200C9468000C94A9000C9468000C9468006B
S11300300C9468000C9468000C9468000C9468009C
S11300400C9468000C9468000C9468000C9468008C
S11300500C9468000C9468000C9468000C9468007C
S11300600C9468000C9468000C9468000C9468006C
S11300700C9468000C9468000C9468000C9468005C
S11300800C9468000C9468000C9468000C9468004C
S11300900C9468000C9468000C9468000C9468003C
S11300A00C9468000C9468000C94680011241FBE22
S11300B0CFEFDAE0DEBFCDBF21E0A0E0B1E001C0C8
S11300C01D92A230B207E1F70E946A000C94DB0093
S11300D00C94000080E887B984E28AB914B82B9A9A
S11300E0E8E6F0E0808181608083EBE6F0E08081E7
S11300F0886080838091000190910101892BD1F463
S1130100189B16C05D98479A2FEF88E09DE3215015
S113011080409040E1F700C000005D9A47982FEFBF
S113012088E09DE3215080409040E1F700C000004A
S11301307894E0CFF8942FE986E891E0215080404C
S11301409040E1F700C000001092010110920001FC
S1130150D1CF1F920F920FB60F9211242F933F937A
S11301604F938F939F938AE090E05A9A2FE332E45F
S11301704FE0215030404040E1F700C000005A9861
S11301802FE332E44FE0215030404040E1F700C01B
S11301900000019751F781E090E090930101809372
S11301A000019F918F914F913F912F910F900FBE1E
S10D01B00F901F901895F894FFCFEC
S9030000FC
