S01700004763634170706C69636174696F6E332E7372656359
S11300000C9456000C9468000C9468000C946800DE
S11300100C9468000C9468000C9468000C946800BC
S11300200C9468000C94D1000C9468000C94680043
S11300300C9468000C9468000C9468000C9468009C
S11300400C9468000C9468000C9468000C9468008C
S11300500C9468000C9468000C9468000C9468007C
S11300600C9468000C9468000C9468000C9468006C
S11300700C9468000C9468000C9468000C9468005C
S11300800C9468000C9468000C9468000C9468004C
S11300900C9468000C9468000C9468000C9468003C
S11300A00C9468000C9468000C94680011241FBE22
S11300B0CFEFDAE0DEBFCDBF21E0A0E0B1E001C0C8
S11300C01D92A830B207E1F70E946A000C94030164
S11300D00C94000020E827B924E22AB914B82B9A1A
S11300E0289AE8E6F0E0208121602083EBE6F0E046
S11300F02081286020832091060130910701232B61
S113010009F040C023B1822F817090E090930301E5
S1130110809302012091000130910101821793071D
S113012051F020910401309105012F5F3F4F30932E
S1130130050120930401209104013091050121302F
S11301403105B1F45D98479A2FEF38E04DE3215023
S113015030404040E1F700C000005D9A47982FEF1F
S113016038E04DE3215030404040E1F700C000004A
S11301707894209100013091010130930301209380
S11301800201B9CFF8942FE936E841E0215030401C
S11301904040E1F700C000001092070110920601F0
S11301A0AACF1F920F920FB60F9211242F933F9351
S11301B04F938F939F938AE090E05A9A2FE332E40F
S11301C04FE0215030404040E1F700C000005A9811
S11301D02FE332E44FE0215030404040E1F700C0CB
S11301E00000019751F781E090E09093070180931C
S11301F006019F918F914F913F912F910F900FBEC8
S10D02000F901F901895F894FFCF9B
S9030000FC
