:100000000C9456000C9473000C9473000C947300C1
:100010000C9473000C9473000C9473000C94730094
:100020000C9473000C94F9000C9473000C947300FE
:100030000C9473000C9473000C9473000C94730074
:100040000C9473000C9473000C9473000C94730064
:100050000C9473000C9473000C9473000C94730054
:100060000C9473000C9473000C9473000C94730044
:100070000C9473000C9473000C9473000C94730034
:100080000C9473000C9473000C9473000C94730024
:100090000C9473000C9473000C9473000C94730014
:1000A0000C9473000C9473000C94730011241FBE05
:1000B000CFEFDAE0DEBFCDBF11E0A0E0B1E0ECECC5
:1000C000F4E002C005900D92AE35B107D9F721E0FA
:1000D000AEE5B1E001C01D92A336B207E1F70E9480
:1000E00041010C9464020C9400001092850010925F
:1000F0008400E0E8F0E0808181608083808182601C
:100100008083A1E8B0E08C9188608C938C918061B1
:100110008C938C9181608C9380818062808380E15C
:1001200097E2909389008093880088EE93E0909303
:100130008B0080938A000895E1E8F0E080818E7F53
:10014000808380818D7F808380818B7F80831092EC
:1001500089001092880010928B0010928A001092F1
:10016000850010928400A0E8B0E08C918E7F8C9383
:100170008C918D7F8C938081877F808380818F7E1F
:100180008083089589E190E09093CD008093CC0026
:1001900088E18093C9008EE08093CA000895E8EC5E
:1001A000F0E0908195FFFDCF8093CE000895EF920F
:1001B000FF920F931F93CF93DF938C017C01C0E0DC
:1001C000D0E006C0F70181917F010E94CF00219607
:1001D000F80101900020E9F73197E01BF10BCE17F1
:1001E000DF0780F3DF91CF911F910F91FF90EF9088
:1001F00008951F920F920FB60F9211242F933F93E1
:100200004F935F936F938F939F9393B19295917058
:10021000292F83B185FB882780F9382F60916201EF
:1002200040916101941751F040915F01509160013C
:100230004F5F5F4F5093600140935F01361751F05D
:1002400040915F015091600141505109509360010C
:1002500040935F01222329F0332319F021E02093FA
:100260005E0190936201809361019F918F916F91E4
:100270005F914F913F912F910F900FBE0F901F9064
:100280001895CF93DF93CDB7DEB764970FB6F89488
:10029000DEBF0FBECDBF0E94C200269A23982B9AC4
:1002A0002098289AEBE6F0E080818061808380814D
:1002B00080628083E8E6F0E08081816080837894CA
:1002C00080E091E00E94D70089E091E00E94D70091
:1002D00080E391E00E94D700A12CB12C812C912CBD
:1002E000C12CD12C760144244394512C11E000E020
:1002F000612C712C1B991FC0A114B104E1F42FEFE4
:1003000081EE94E0215080409040E1F700C0000071
:10031000C0905F01D09060010D2C000CEE08FF082A
:1003200026E6C21A28E0D20AE108F1080E94750008
:10033000729AA42CB52C18991FC081149104E1F471
:100340008FEF91EE24E0815090402040E1F700C013
:100350000000C0905F01D09060010D2C000CEE08F1
:10036000FF0886E6C80E88E0D81EE11CF11C0E943A
:1003700075007298842C952C80915F01909160019A
:10038000092E000CAA0BBB0B212F8C159D05AE0569
:10039000BF0509F0202F222339F1812F91E0891622
:1003A000910409F0802F8823F9F02FEF81EE94E07B
:1003B000215080409040E1F700C000000E949C0066
:1003C00086E591E00E94D7004AE0BE016F5F7F4F53
:1003D00080915F01909160010E942F02CE010196F1
:1003E0000E94D700862C972C80915F01909160012C
:1003F000092E000CAA0BBB0B212F8C159D05AE05F9
:10040000BF0509F0202F222309F474CF812F21E0AA
:10041000A216B10409F0802F882309F46BCF8FEF67
:1004200091EE24E0815090402040E1F700C00000B0
:100430000E949C0086E591E00E94D7004AE0BE0140
:100440006F5F7F4F80915F01909160010E942F024A
:10045000CE0101960E94D700A62CB72C4BCFBB270C
:100460004A3031F4992322F4BDE2909581959F4F53
:100470000C943B02BB27FB015527AA27880F991F25
:10048000AA1FA41710F0A41B83955051B9F7A05DC3
:10049000AA3308F0A95DA193009779F7B111B19340
:1004A0001192CB010C945402DC01FC01672F719175
:1004B0007723E1F7329704C07C916D93708362914A
:0C04C000AE17BF07C8F30895F894FFCFF3
:1004CC0057656C636F6D650A0050726573732042DB
:1004DC007574746F6E204120746F206D6F7665207B
:1004EC006D6F746F72204241434B574152440A0066
:1004FC00507265737320427574746F6E2043207450
:10050C006F206D6F7665206D6F746F7220464F5241
:0E051C00574152440A00436F756E74203A0036
:00000001FF
