:100000000C94C8000C94E5000C94E5000C94E500F9
:100010000C94E5000C94E5000C94E5000C94E500CC
:100020000C94E5000C947E020C94E5000C94E50021
:100030000C94E5000C94E5000C94E5000C94E500AC
:100040000C94E5000C94E5000C94E5000C94E5009C
:100050000C94E5000C9403020C94E5000C94E5006C
:100060000C94E5000C94E5000C94E5000C94E5007C
:100070000C94E5000C94E5000C94E5000C94E5006C
:100080000C94E5000C94E5000C94E5000C94E5005C
:100090000C94E5000C94E5000C94E5000C94E5004C
:1000A0000C94E5000C94E5000C94E5005104320535
:1000B0003205320532053205320532053205320588
:1000C000320532050B043205AD0332053205320527
:1000D000AD043205320532053205320532053205EE
:1000E0003205320532053205320532057F0432050C
:1000F0003205320532053205320532053205320548
:10010000320532052E043205DC033205250507636E
:100110004236B79BD8A71A39685618AEBAAB558C79
:100120001D3CB7CC5763BD6DEDFD753EF6177231C2
:10013000BF000000803F08000000BE922449123E2C
:10014000ABAAAA2ABECDCCCC4C3E00000080BEABF0
:10015000AAAAAA3E00000000BF000000803F0000E5
:10016000000000084178D3BB4387D1133D190E3CF2
:10017000C3BD4282AD2B3E68EC8276BED98FE1A929
:100180003E4C80EFFFBE01C4FF7F3F000000000037
:1001900011241FBECFEFDAE0DEBFCDBF13E0A0E039
:1001A000B1E0EAEAF6E102C005900D92A23CB10787
:1001B000D9F723E0A2ECB3E001C01D92A33DB20742
:1001C000E1F70E94E7020C94530B0C9400009B0192
:1001D000215031091216130684F4FC01E60FF71FB3
:1001E000DC0180E090E04C9152915D934083019658
:1001F0002150310982179307B4F30895EF92FF92CB
:100200000F931F93CF93DF938B019A01009799F07F
:10021000FB01C0E0D0E00F2EFAE0EF2EF12CF02D24
:100220002196B7010E948D0A805D8193862F972FBA
:100230000097B1F702C0C0E0D0E0C217D30764F462
:10024000F801EC0FFD1FA801420F531F80E38193BB
:10025000E417F507E1F7E901BE01C8010E94E700D4
:10026000F801EC0FFD1F1082CE01DF91CF911F919D
:100270000F91FF90EF9008952F923F924F925F92CF
:100280006F927F928F929F92AF92BF92CF92DF92A6
:10029000EF92FF920F931F93CF93DF934B015C017B
:1002A0008A01E9010E94D7076B017C0140E050E020
:1002B000B801C6010E94FE001C012097A9F1F801B7
:1002C000E80FF91F8EE28083BE010D2E000C880B13
:1002D000990B0E940F089B01AC0160E070E080E286
:1002E00091E40E9408092B013C01B601DD0C880B4A
:1002F000990B0E940F089B01AC01C501B4010E943B
:10030000F8069B01AC018FEF281A380A020D131D65
:10031000C301B2010E949B080E94D707DC01CB01F8
:10032000AE01B8010E94FE00DF91CF911F910F91A5
:10033000FF90EF90DF90CF90BF90AF909F908F9005
:100340007F906F905F904F903F902F90089589E13C
:1003500090E09093CD008093CC0088E18093C90019
:100360008EE08093CA000895E8ECF0E0908195FF5C
:10037000FDCF8093CE000895E8ECF0E080818823E3
:10038000ECF78091CE0008958091C800082E000CF3
:10039000990B892F881F8827881F90E00895EF9276
:1003A000FF920F931F93CF93DF938C017C01C0E0EA
:1003B000D0E006C0F70181917F010E94B40121962F
:1003C000F80101900020E9F73197E01BF10BCE17FF
:1003D000DF0780F3DF91CF911F910F91FF90EF9096
:1003E000089516BCEEE6F0E080818260808384B5DB
:1003F000826084BD85B5826085BD85B5816085BD1F
:100400008EE387BD08951F920F920FB60F921124AD
:100410002F933F934F935F936F937F938F939F930C
:10042000AF93BF93EF93FF938091CF039091D0034D
:10043000A091D103B091D2030196A11DB11D80936B
:10044000CF039093D003A093D103B093D2036091D4
:10045000CF037091D0038091D1039091D20326E015
:1004600030E040E050E00E94A10A672B682B692B26
:1004700089F48091CB039091CC03092E000CAA0B38
:10048000BB0B8093C6039093C703A093C803B0939C
:10049000C90323C06091CF037091D0038091D10331
:1004A0009091D20326E030E040E050E00E94A10AA3
:1004B000633071058105910581F48091CB039091A2
:1004C000CC03092E000CAA0BBB0B8093C2039093A4
:1004D000C303A093C403B093C503FF91EF91BF91F1
:1004E000AF919F918F917F916F915F914F913F91CC
:1004F0002F910F900FBE0F901F9018951F920F9283
:100500000FB60F9211242F933F934F935F936F93E6
:100510008F939F9393B192959170292F83B185FB0F
:10052000882780F9382F6091CE034091CD0394172E
:1005300051F04091CB035091CC034F5F5F4F5093EC
:10054000CC034093CB03361751F04091CB0350912D
:10055000CC03415051095093CC034093CB03222349
:1005600029F0332319F021E02093CA039093CE039E
:100570008093CD039F918F916F915F914F913F91A8
:100580002F910F900FBE0F901F901895109285001D
:1005900010928400E0E8F0E08081816080838081B7
:1005A00082608083A1E8B0E08C9188608C938C910C
:1005B00080618C938C9181608C9380818062808338
:1005C00080E197E290938900809388000895CF930B
:1005D000DF93CDB7DEB766970FB6F894DEBF0FBED8
:1005E000CDBF0E94A7010E94C6020E94F101269A77
:1005F000EBE6F0E08081806180838081806280838F
:10060000E8E6F0E080818160808378948091060143
:1006100090910701A0910801B09109016C017D0141
:10062000CC0CDD1CEE1CFF1CCC0CDD1CEE1CFF1CDE
:10063000CC0CDD1CEE1CFF1CC81AD90AEA0AFB0A06
:10064000460157018AE091E00E94CF0183E191E0E9
:100650000E94CF018091060190910701A0910801AD
:10066000B09109014AE0BE016F5F7F4F0E941E0BEF
:10067000CE0101960E94CF018CE092E00E94CF0152
:1006800080E391E00E94CF014AE0BE016F5F7F4F9F
:10069000C6010E941E0BCE0101960E94CF018CE084
:1006A00092E00E94CF018DE491E00E94CF014AE0E8
:1006B000BE016F5F7F4F8091CB039091CC030E946E
:1006C0001E0BCE0101960E94CF018CE092E00E94A9
:1006D000CF0100E010E06894EE24E1F8F12C33241F
:1006E0003394212C02C0E32CF22C0115110511F5D5
:1006F0008AE691E00E94CF018CE991E00E94CF014F
:100700008EEC91E00E94CF018EEE91E00E94CF012D
:100710008EE092E00E94CF018FE292E00E94CF0132
:1007200080E592E00E94CF0185E892E00E94CF012F
:10073000032D122D0E94C401892B09F493C10E943C
:10074000BC0190E0FC01E454F109E133F10508F04B
:1007500089C1EA5AFF4F0C94C00A26E4820E911C0C
:10076000A11CB11C8091060190910701A091080184
:10077000B09109010A96A11DB11D809306019093C5
:100780000701A0930801B093090187EA92E00E9453
:10079000CF018091060190910701A0910801B091CD
:1007A00009014AE0BE016F5F7F4F0E941E0BCE0120
:1007B00001960E94CF0156C136E4831A9108A10820
:1007C000B1088091060190910701A0910801B091B4
:1007D00009010A97A109B1098093060190930701C5
:1007E000A0930801B093090185ED92E00E94CF012A
:1007F0008091060190910701A0910801B091090133
:100800004AE0BE016F5F7F4F0E941E0BCE01019632
:100810000E94CF0127C180910401909105010196AA
:10082000909305018093040187EF92E00E94CF012D
:100830006091040170910501072E000C880B990B43
:100840000E940F08232D322DAE014F5F5F4F0E9493
:100850003C01CE0101960E94CF0104C180910401A8
:10086000909105010197909305018093040187EF12
:1008700092E00E94CF016091040170910501072E62
:10088000000C880B990B0E940F08232D322DAE010E
:100890004F5F5F4F0E943C01CE0101960E94CF0145
:1008A000E1C060910001709101018091020190917D
:1008B000030120E030E040E05FE30E94F90660932E
:1008C00000017093010180930201909303018BE07A
:1008D00093E00E94CF01609100017091010180912D
:1008E000020190910301232D322DAE014F5F5F4F26
:1008F0000E943C01CE0101960E94CF01B3C06091DD
:10090000000170910101809102019091030120E0AA
:1009100030E040E05FE30E94F806609300017093CE
:10092000010180930201909303018EE193E00E9404
:10093000CF016091000170910101809102019091BD
:100940000301232D322DAE014F5F5F4F0E943C010A
:10095000CE0101960E94CF0185C082E393E00E9400
:10096000CF016091040170910501072E000C880BE6
:10097000990B0E940F08232D322DAE014F5F5F4F60
:100980000E943C01CE0101960E94CF018CE092E0D2
:100990000E94CF0189E493E00E94CF0160910001A1
:1009A000709101018091020190910301232D322D5C
:1009B000AE014F5F5F4F0E943C01CE0101960E9445
:1009C000CF018CE092E00E94CF0180E693E00E948C
:1009D000CF014AE0BE016F5F7F4F8091CB039091C2
:1009E000CC030E941E0BCE0101960E94CF018CE029
:1009F00092E00E94CF0183E893E00E94CF014AE099
:100A0000BE016F5F7F4FC4010E941E0BCE01019695
:100A10000E94CF018CE092E00E94CF0182EA93E035
:100A20000E94CF018091060190910701A0910801D9
:100A3000B09109014AE0BE016F5F7F4F0E941E0B1B
:100A4000CE0101960E94CF010DC08091CB03909101
:100A5000CC03092E000CAA0BBB0B88159905AA051F
:100A6000BB0529F441E0E416F10409F03ECE809183
:100A7000CB039091CC03AC01481959099A0122F497
:100A800022273327241B350B6901330FEE08FF089B
:100A9000092E000CAA0BBB0B88169906AA06BB06EA
:100AA0000CF0D0C0A0910401B09105014090C203A8
:100AB0005090C3036090C4037090C5032091C60397
:100AC0003091C7034091C8035091C9032B873C87DD
:100AD0004D875E8720910001309101014091020114
:100AE000509103012F87388B498B5A8BA7019601B0
:100AF0000E94C60A0E940F086B8B7C8B8D8B9E8B8D
:100B0000C301B2012B853C854D855E85621B730B4D
:100B1000840B950B0E940F082FE632E143E85BE35C
:100B20000E9465070E94D7079B01772324F42227A0
:100B30003327261B370BB901330F880B990B0E9403
:100B40000F082F85388949895A890E949B089B0183
:100B5000AC016B897C898D899E890E94F9060E946F
:100B6000D70760317742810591050CF061C0A091F3
:100B70000401B09105012091C2033091C30340915B
:100B8000C4035091C5032B873C874D875E874090F7
:100B9000C6035090C7036090C8037090C9032091AA
:100BA00000013091010140910201509103012F8712
:100BB000388B498B5A8BA70196010E94C60A0E9466
:100BC0000F086B017C016B857C858D859E85641982
:100BD0007509860997090E940F082FE632E143E85C
:100BE0005BE30E9465070E94D7079B01772324F4EB
:100BF00022273327261B370BB901330F880B990B9C
:100C00000E940F082F85388949895A890E949B08BC
:100C10009B01AC01C701B6010E94F9060E94DE07E4
:100C2000EAE8F0E071836083729AE32CF22C5DCDE8
:100C300020E137E2EAE8F0E031832083729AE32C86
:100C4000F22C53CD88159905AA05BB050CF04BCDA8
:100C5000A0910401B09105014090C2035090C303DC
:100C60006090C4037090C5032091C6033091C70300
:100C70004091C8035091C9032B873C874D875E87FD
:100C80002091000130910101409102015091030136
:100C90002F87388B498B5A8BA70196010E94C60A71
:100CA0000E940F086B8B7C8B8D8B9E8BC301B201D6
:100CB0002B853C854D855E85621B730B840B950BE4
:100CC0000E940F082FE632E143E85BE30E946507CC
:100CD0000E94D7079B01772324F422273327261B62
:100CE000370BB901330F880B990B0E940F082F8522
:100CF000388949895A890E949B089B01AC016B89FC
:100D00007C898D899E890E94F9060E94D7076031EF
:100D10007742810591050CF061C0A0910401B0916A
:100D200005012091C2033091C3034091C403509147
:100D3000C5032B873C874D875E874090C603509044
:100D4000C7036090C8037090C903209100013091DF
:100D5000010140910201509103012F87388B498B8B
:100D60005A8BA70196010E94C60A0E940F086B01C8
:100D70007C016B857C858D859E8564197509860946
:100D800097090E940F082FE632E143E85BE30E94D7
:100D900065070E94D7079B01772324F42227332776
:100DA000261B370BB901330F880B990B0E940F08D4
:100DB0002F85388949895A890E949B089B01AC017B
:100DC000C701B6010E94F9060E94DE07EAE8F0E0DA
:100DD000718360837298E32CF22C87CC20E137E298
:100DE000EAE8F0E0318320837298E32CF22C7DCC8A
:100DF0005058BB27AA270E9410070C9461080E9434
:100E0000530838F00E945A0820F039F49F3F19F433
:100E100026F40C9450080EF4E095E7FB0C944A0875
:100E2000E92F0E94720858F3BA1762077307840704
:100E3000950720F079F4A6F50C9494080EF4E0954B
:100E40000B2EBA2FA02D0B01B90190010C01CA0184
:100E5000A0011124FF27591B99F0593F50F4503E2F
:100E600068F11A16F040A22F232F342F4427585F21
:100E7000F3CF469537952795A795F0405395C9F739
:100E80007EF41F16BA0B620B730B840BBAF09150F1
:100E9000A1F0FF0FBB1F661F771F881FC2F70EC090
:100EA000BA0F621F731F841F48F487957795679563
:100EB000B795F7959E3F08F0B0CF9395880F08F04F
:100EC0009927EE0F9795879508950E9479070C94BE
:100ED00061080E945A0858F00E94530840F029F413
:100EE0005F3F29F00C944A0851110C9495080C941A
:100EF00050080E94720868F39923B1F3552391F3C7
:100F0000951B550BBB27AA2762177307840738F078
:100F10009F5F5F4F220F331F441FAA1FA9F335D0D5
:100F20000E2E3AF0E0E832D091505040E695001C89
:100F3000CAF72BD0FE2F29D0660F771F881FBB1F43
:100F4000261737074807AB07B0E809F0BB0B802D21
:100F5000BF01FF2793585F4F3AF09E3F510578F04D
:100F60000C944A080C9495085F3FE4F3983ED4F340
:100F7000869577956795B795F7959F5FC9F7880F21
:100F8000911D9695879597F90895E1E0660F771F73
:100F9000881FBB1F621773078407BA0720F0621B04
:100FA000730B840BBA0BEE1F88F7E09508950E942F
:100FB000DE076894B1110C94950808950E947A0890
:100FC00088F09F5798F0B92F9927B751B0F0E1F00A
:100FD000660F771F881F991F1AF0BA95C9F714C0BA
:100FE000B13091F00E949408B1E008950C949408F7
:100FF000672F782F8827B85F39F0B93FCCF38695F3
:1010000077956795B395D9F73EF49095809570954F
:1010100061957F4F8F4F9F4F0895E89409C097FBCC
:101020003EF490958095709561957F4F8F4F9F4FBF
:101030009923A9F0F92F96E9BB279395F695879503
:1010400077956795B795F111F8CFFAF4BB0F11F4C6
:1010500060FF1BC06F5F7F4F8F4F9F4F16C088236D
:1010600011F096E911C0772321F09EE8872F762FA3
:1010700005C0662371F096E8862F70E060E02AF0E4
:101080009A95660F771F881FDAF7880F96958795D0
:1010900097F9089597F99F6780E870E060E00895F8
:1010A0009FEF80EC089500240A9416161706180680
:1010B0000906089500240A9412161306140605065C
:1010C0000895092E0394000C11F4882352F0BB0FED
:1010D00040F4BF2B11F460FF04C06F5F7F4F8F4F50
:1010E0009F4F089557FD9058440F551F59F05F3F8B
:1010F00071F04795880F97FB991F61F09F3F79F03A
:1011000087950895121613061406551FF2CF4695BB
:10111000F1DF08C0161617061806991FF1CF86953D
:101120007105610508940895E894BB276627772721
:10113000CB0197F908950E94AE080C9461080E94B3
:10114000530838F00E945A0820F0952311F00C94AF
:101150004A080C94500811240C9495080E947208B7
:1011600070F3959FC1F3950F50E0551F629FF001FA
:10117000729FBB27F00DB11D639FAA27F00DB11D13
:10118000AA1F649F6627B00DA11D661F829F22279C
:10119000B00DA11D621F739FB00DA11D621F839F23
:1011A000A00D611D221F749F3327A00D611D231FF9
:1011B000849F600D211D822F762F6A2F11249F5747
:1011C00050409AF0F1F088234AF0EE0FFF1FBB1F4A
:1011D000661F771F881F91505040A9F79E3F510509
:1011E00080F00C944A080C9495085F3FE4F3983E15
:1011F000D4F3869577956795B795F795E7959F5FB3
:10120000C1F7FE2B880F911D9695879597F9089544
:10121000FA01EE0FFF1F309621053105A1F161158E
:10122000710561F48038BFE39B0749F168949038F9
:10123000810561F08038BFEF9B0741F099234AF5A3
:10124000FF3FE1053105210519F1E8940894E79580
:10125000D901AA2329F4AB2FBE2FF85FD0F310C019
:10126000FF5F70F4A695E0F7F73950F019F0FF3AF8
:1012700038F49F779F930DD00F9007FC90580895F6
:1012800046F00C94500860E070E080E89FE3089519
:101290004FE79F775F934F933F932F930E94030AEB
:1012A0002F913F914F915F910E949B080C94600990
:1012B00029F416F00C944A080C9494080C945008E5
:1012C0000E947A08A8F39638A0F707F80F92E894DE
:1012D0002BE33AEA48EB5FE70E94B1080F920F92C6
:1012E0000F924DB75EB70F920E944B0AEEE0F1E00D
:1012F0000E9492094F915F91EF91FF91E595EE1F4A
:10130000FF1F49F0FE57E0684427EE0F441FFA958F
:10131000E1F74195550B0E94C5090F9007FE0C940B
:10132000B9090895DF93CF931F930F93FF92EF9224
:10133000DF927B018C01689406C0DA2EEF010E94D7
:10134000AE08FE01E894A5912591359145915591FE
:10135000A6F3EF010E941007FE019701A801DA949D
:1013600069F7DF90EF90FF900F911F91CF91DF9180
:1013700008959B01AC0160E070E080E89FE30C946D
:1013800065070C944A080C947F0A0E947A08D8F3E7
:101390009923C9F3940F511DA3F39150504094F039
:1013A00059F0882332F0660F771F881F9150504004
:1013B000C1F79E3F51052CF7880F911D9695879593
:1013C00097F908955F3FACF0983E9CF0BB27869557
:1013D00077956795B79508F4B1609395C1F7BB0F02
:1013E00058F711F460FFE8CF6F5F7F4F8F4F9F4F2B
:1013F000E3CF0C94950816F00C947F0A0C945008D7
:1014000068940C944A080E947A08A8F39923C1F3BF
:10141000AEF3DF93CF931F930F93FF92C92FDD2776
:1014200088232AF02197660F771F881FDAF720E0BC
:1014300030E040E85FEB9FE3883920F0803E38F0F1
:1014400021968F770E94F906E6E3F1E004C00E943E
:10145000F906E3E6F1E00E9492098B01BE01EC017E
:10146000FB2E6F5771097595771F880B990B0E949A
:101470000F0828E132E741E35FE30E94AE08AF2D99
:101480009801AE01FF900F911F91CF91DF910E94C3
:1014900010070C946108FA01DC01AA0FBB1F9B0125
:1014A000AC01BF5728F4222733274427507820C0A7
:1014B000B75190F4AB2F0024469537952795011C22
:1014C000A395D2F3002071F0220F331F441FB39570
:1014D000DAF30ED00C94F80661307105A0E88A07A3
:1014E000B94630F49B01AC016627772788279078AE
:1014F000309621F0208331834283538308959F3FA8
:1015000031F0915020F4879577956795B795880FBE
:10151000911D9695879597F9089597FB072E16F4D8
:10152000009407D077FD09D00E94CE0A07FC05D0B1
:101530003EF4909581959F4F0895709561957F4FEA
:101540000895052E97FB1EF400940E94B80A57FDDB
:1015500007D00E94E20A07FC03D04EF40C94B80AAC
:1015600050954095309521953F4F4F4F5F4F0895CF
:1015700090958095709561957F4F8F4F9F4F0895FF
:10158000EE0FFF1F0590F491E02D0994B7FF0C9426
:10159000040B0E94040B821B930B0895AA1BBB1B18
:1015A00051E107C0AA1FBB1FA617B70710F0A61B63
:1015B000B70B881F991F5A95A9F780959095BC0184
:1015C000CD010895A1E21A2EAA1BBB1BFD010DC07F
:1015D000AA1FBB1FEE1FFF1FA217B307E407F507E3
:1015E00020F0A21BB30BE40BF50B661F771F881FBF
:1015F000991F1A9469F760957095809590959B0155
:10160000AC01BD01CF0108950E940F0BA59F900D65
:10161000B49F900DA49F800D911D11240895A29F49
:10162000B001B39FC001A39F700D811D1124911DB6
:10163000B29F700D811D1124911D0895BB274A3062
:1016400031F4992322F4BDE2909581959F4F0C943B
:101650002A0BBB27FB015527AA27880F991FAA1F12
:10166000A41710F0A41B83955051B9F7A05DAA33BD
:1016700008F0A95DA193009779F7B111B193119288
:10168000CB010C94430BDC01FC01672F7191772394
:10169000E1F7329704C07C916D9370836291AE172D
:0A16A000BF07C8F30895F894FFCFC8
:1016AA000000604014006801000057656C636F6DAC
:1016BA00650A0054617267657420706F7369746992
:1016CA006F6E20696E20646567726565203A200036
:1016DA0054617267657420706F736974696F6E20E4
:1016EA00696E20636F756E7473203A2000437572B9
:1016FA0072656E7420706F736974696F6E20696E9B
:10170A0020636F756E74203A2000456E74657220EE
:10171A0027522720746F20696E6372656173652092
:10172A00746865207265666572656E6365206279A4
:10173A00203130206465677265650A00456E7465FC
:10174A00722027722720746F20696E637265617335
:10175A006520746865207265666572656E636520CA
:10176A006279203130206465677265650A00456ECA
:10177A007465722027502720746F20696E63726522
:10178A00617365204B702062792031200A00456E12
:10179A007465722027702720746F206465637265F0
:1017AA00617365204B702062792031200A00456EF2
:1017BA007465722027442720746F20696E637265EE
:1017CA00617365204B6420627920302E350A00450A
:1017DA006E7465722027642720746F2064656372B3
:1017EA0065617365204B6420627920302E350A00CA
:1017FA00456E7465722027562720746F20766965B6
:10180A00772063757272656E742076616C75657384
:10181A00206F66204B642C204B702C2050722C2099
:10182A00506D200A00456E74657220277427207453
:10183A006F20537461727420746865207472616ACF
:10184A006563746F7279004E65772072656665729A
:10185A00656E636520706F736974696F6E20736556
:10186A007420746F28696E206465677265657329D0
:10187A00203A200A004E6577207265666572656EA9
:10188A00636520706F736974696F6E207365742065
:10189A00746F203A200A004E65772076616C756570
:1018AA00206F66206B70203A200A004E65772076FA
:1018BA00616C7565206F66206B64203A20004E6566
:1018CA00772076616C7565206F66206B64203A20FC
:1018DA000A0043757272656E742076616C756520B4
:1018EA006F66206B70203A200043757272656E74C1
:1018FA002076616C7565206F66206B64203A200043
:10190A004D6561737572656420706F736974696F70
:10191A006E2027506D2720696E20636F756E7420C4
:10192A003A20005265666572656E636520706F7352
:10193A006974696F6E20696E20636F756E74203AE0
:10194A0020005265666572656E636520706F736903
:10195A0074696F6E20696E20646567726565203AE6
:02196A0020005B
:00000001FF
