S01000004C6162315F6E65772E737265632B
S11300000C943C010C9459010C9459010C94590121
S11300100C9459010C9459010C9459010C945901F4
S11300200C9459010C9459010C9459010C945901E4
S11300300C9459010C9459010C9459010C945901D4
S11300400C9459010C94B4050C9459010C94590165
S11300500C9459010C94DA040C9459010C94590130
S11300600C9459010C942A080C9459010C947908A5
S11300700C9459010C9459010C9459010C94590194
S11300800C941A050C9459010C9459010C945901BF
S11300900C9459010C9459010C9459010C94590174
S11300A00C9459010C9459010C94590105A84CCD98
S11300B0B2D44EB93836A9020C50B9918688083C9E
S11300C0A6AAAA2ABE000000803F07634236B79B57
S11300D0D8A71A39685618AEBAAB558C1D3CB7CCA4
S11300E05763BD6DEDFD753EF6177231BF0000001C
S11300F0803F08000000BE922449123EABAAAA2AFF
S1130100BECDCCCC4C3E00000080BEABAAAAAA3E19
S113011000000000BF000000803F00000000000855
S11301204178D3BB4387D1133D190E3CC3BD4282F2
S1130130AD2B3E68EC8276BED98FE1A93E4C80EFB0
S1130140FFBE01C4FF7F3F0000000000504E4B453E
S11301503F3D3D3E40414450544B4441403F41416A
S11301604D504D48474D48424143544D4A4F504AE3
S1130170474643435E52515B5744414A4745896869
S11301804E51544F4B4F48489E896B59565B5752BA
S11301904C4A7C9BA48360575651504E5C718EA090
S11301A0916E534C5952645D657D908B75654F56C5
S11301B0282928242222252729291C282F2A2526D4
S11301C02827292923272724282E2E2829282722AF
S11301D022282D2C292B29292F2525323122212C87
S11301E02929593821242B28272D2A296C563A2AC3
S11301F02A31312C2A294A687353322A2C282A2975
S1130200283D5C6D5F3D261F2E2B312A314B5D59F5
S11302104436212B151514100D0D0F111313091548
S11302201B161011121113130C100F0C0F171610AC
S113023011130C07060C1311101111110F040612DF
S1130240130404111011351400020A0809100F10C8
S1130250422E1204050E0F0C0D0F1C3D47290904F4
S113026009070A0D000E2E42351500000D0B000083
S1130270021D322F1C10000A11241FBECFEFDAE03A
S1130280DEBFCDBF13E0A0E0B1E0ECE7FCE102C0CB
S113029005900D92AC3EB107D9F728E0ACEEB3E07F
S11302A001C01D92AC32B207E1F70E94FB050C9429
S11302B03C0E0C9400002F923F924F925F926F92EB
S11302C07F928F929F92AF92BF92CF92DF92EF92E2
S11302D0FF920F931F93CF93DF93CDB7DEB7C9542B
S11302E0D1090FB6F894DEBF0FBECDBF212C312C3F
S11302F08DAB9DAF4B01881A990A2A01481A590AF5
S1130300340162C0F7016491F301EE0DFF1D1491F5
S1130310F201EE0DFF1D049170E080E090E00E9478
S1130320D10920ED33EB49E55EE30E94C50A69AFCC
S11303307AAF8BAF9CAF602F70E080E090E00E94BA
S1130340D10929E537E147E35FE30E94C50A9B0130
S1130350AC0169AD7AAD8BAD9CAD0E94B10869AFBB
S11303607AAF8BAF9CAF612F70E080E090E00E9489
S1130370D10928E93DED43E95DE30E94C50A9B01EB
S1130380AC0169AD7AAD8BAD9CAD0E94B10820E0A3
S113039030E04FE753E40E9427090E94A009F601C8
S11303A0E80DF91D608BFFEF8F1A9F0AEA0CFB1C06
S11303B016E08116910409F0A5CF2FEF221A320A14
S11303C036E023163104B1F051018FEFA81AB80AB0
S11303D0EDA8FDAC812C912C6101CC0CDD1CC20C70
S11303E0D31CCC0CDD1CE1E0F0E0EC0FFD1FCE0EC5
S11303F0DF1E88CF8BED9FE0A9E4B0E480930E0468
S113040090930F04A0931004B0931104E12CF12CE9
S1130410812C912C5401612C712C1DC0F601E00F2C
S1130420F11F608970E080E090E00E94D1099B0197
S1130430AC01C501B4010E94B1084B015C010F5F1E
S11304401F4F0630110551F7FFEFEF1AFF0A16E0B0
S1130450E116F10481F0062D172D6701CC0CDD1C8B
S1130460CE0CDF1CCC0CDD1C21E030E02C0F3D1F3A
S1130470C20ED31ED3CF20E030E0A9010E941D0993
S1130480811112C026C0F901E80FF91F4089152F08
S1130490141B108B019686309105A9F76F5F7F4F6F
S11304A06630710531F415C060E070E0B0E0A0E0A2
S11304B051E08B2F9A2F9B01220F331F260F371FDA
S11304C0220F331FE1E0F0E0EC0FFD1F2E0F3F1F62
S11304D0DACF2A961FAE1EAE2A9728961FAE28970B
S11304E0612C2A962EAD3FAD2A97B901330F880BA4
S11304F0990B0E94D10920E030E040E450E40E94CE
S1130500B00820E030E040E05FE30E94B1082196AB
S11305106CAF7DAF8EAF9FAF21979B01AC010E9462
S1130520C50A25966CAF7DAF8EAF9FAF2597A12CE2
S1130530B12C2A968EAD9FAD2A97880F991F2A96C3
S1130540EEADFFAD2A978E0F9F1F880F991F21E0F4
S113055030E02C0F3D1F280F391F27963FAF2EAFD9
S11305602797B50163507109072E000C880B990B6E
S11305700E94D10920E030E040E05FE30E94B1082E
S113058069AF7AAF8BAF9CAF9B01AC010E94C50AE7
S11305906B017C0125962CAD3DAD4EAD5FAD25972D
S11305A0C701B6010E94B1080E94900B6B017C0147
S11305B02796EEADFFAD2797EA0DFB1D608970E02D
S11305C080E090E00E94CF09A70196010E94C50A2D
S11305D00E94A00928962FAC2897362C762E250148
S11305E0B101032C000C880B990B0E94D1094B011B
S11305F05C012BED3FE049EC5FE30E94C50A2BED63
S11306003FE049E450E40E94B0086B017C010E9481
S113061022096DAB7EAB8FAB98AFC701B6010E94C8
S1130620820B6B017C0129AD3AAD4BAD5CAD6DA97C
S11306307EA98FA998AD0E94C50A6DAB7EAB8FAB26
S113064098AF21962CAD3DAD4EAD5FAD2197C7015E
S1130650B6010E94C50A9B01AC016DA97EA98FA9B0
S113066098AD0E94B1086B017C0120E030E0A90143
S11306700E94C00A8823ACF0C701B6010E94990900
S1130680072E000C880B990B0E94D1092EEC36EE34
S113069048E75FE30E9427090E9499098B01F10151
S11306A021C0C701B60190582EEC36EE48E75FE34F
S11306B00E9427090E9499098B0120E030E040E064
S11306C050E4C501B4010E94B1080E949909637005
S11306D07078772334F4615071096C6F7F6F6F5FAA
S11306E07F4FFB01000F111F000F111FE00FF11FBF
S11306F081E090E08C0F9D1FE80FF91F8081870D2A
S113070080839FEF291A390AE4E02E16310409F098
S113071067CF5201FFEFAF1ABF0A16E0A116B1046A
S113072009F01FCF2A962EAD3FAD2A972F5F3F4F7A
S11307302A963FAF2EAF2A972630310509F0D1CE45
S1130740698170E080E090E00E94CF094B015C0178
S1130750698170E080E090E00E94CF092B013C01A8
S1130760E12CF12C212C312C670159C0F701E00F49
S1130770F11F81E090E08C0F9D1FE80FF91F60814D
S113078070E080E090E00E94D109A50194010E94EC
S1130790C00A18168CF4F701E00FF11F21E030E0D5
S11307A02C0F3D1FE20FF31F608170E080E090E0AA
S11307B00E94CF094B015C01F701E00FF11F81E0BA
S11307C090E08C0F9D1FE80FF91F608170E080E0BE
S11307D090E00E94D109A30192010E941D0988237F
S11307E08CF4F701E00FF11F21E030E02C0F3D1FE6
S11307F0E20FF31F608170E080E090E00E94CF0977
S11308002B013C010F5F1F4F0430110509F0AECFDF
S11308103FEFC31AD30A84E0C816D10441F0022D75
S1130820132D7601EE0CFF1CEE0CFF1C9FCFA301D1
S11308309201C501B4010E94B00869AF7AAF8BAFD1
S11308409CAFA12CB12C912C812C312C34C086016D
S11308500E0D1F1DE1E0F0E0EC0FFD1F0E0F1F1F3A
S1130860F801608170E080E090E00E94D109A3016A
S113087092010E94B00829AD3AAD4BAD5CAD0E9427
S1130880270920E030E040EC5FE30E94320B0E9435
S1130890A009F80160838081980EFFEFEF1AFF0A28
S11308A014E0E116F10499F62FEFA21AB20A34E02B
S11308B0A316B10441F0E82CF32C6501CC0CDD1C2B
S11308C0CC0CDD1CC4CF892DC75BDF4F0FB6F89469
S11308D0DEBF0FBECDBFDF91CF911F910F91FF906F
S11308E0EF90DF90CF90BF90AF909F908F907F90CC
S11308F06F905F904F903F902F900895E8ECF0E058
S1130900908195FFFDCF8093CE000895E8ECF0E050
S113091080818823ECF78091CE00089589E190E0EE
S11309209093CD008093CC0088E18093C9008EE041
S11309308093CA0008958091C800082E000C990B7A
S1130940892F881F8827881F90E00895EF92FF92CF
S11309500F931F93CF93DF938C017C01C0E0D0E011
S113096006C0F70181917F010E947E042196F8015F
S113097001900020E9F73197E01BF10BCE17DF0758
S113098080F3DF91CF911F910F91FF90EF90089525
S113099016BCEEE6F0E080818260808384B58260DC
S11309A084BD85B5826085BD85B5816085BD8AEFCE
S11309B087BD08951F920F920FB60F9211248F9343
S11309C09F93AF93BF9380911C0490911D04A091B9
S11309D01E04B0911F040196A11DB11D80931C0437
S11309E090931D04A0931E04B0931F04BF91AF9174
S11309F09F918F910F900FBE0F901F90189510929A
S1130A00950010929400E1E7F0E080818260808399
S1130A10E1E9F0E080818860808380818260808366
S1130A208081816080838AE698E190939900809325
S1130A30980008951F920F920FB60F9211242F93CE
S1130A403F934F935F936F937F938F939F93AF9352
S1130A50BF93EF93FF930E94B60D65E070E00E9490
S1130A60200D049719F580911A0490911B040197A5
S1130A7099F48091FC039091FD03A091FE03B09141
S1130A80FF030196A11DB11D8093FC039093FD0308
S1130A90A093FE03B093FF0381E090E090931B04C6
S1130AA080931A0490930B0480930A0480910804A1
S1130AB09091090401969093090480930804049783
S1130AC0DCF09BB180E489278BB910920904109261
S1130AD008048091120490911304A0911404B0911D
S1130AE015040196A11DB11D809312049093130463
S1130AF0A0931404B0931504FF91EF91BF91AF91AB
S1130B009F918F917F916F915F914F913F912F9121
S1130B100F900FBE0F901F901895109285001092A1
S1130B208400A0E8B0E08C9181608C938C91826009
S1130B308C93E1E8F0E0808188608083808180612B
S1130B4080838081816080838081826080838C91B6
S1130B5080648C9388EA91E690938900809388005E
S1130B6082E080936F0008951F920F920FB60F9248
S1130B7011248F939F93AF93BF9380911604909108
S1130B801704A0911804B09119040196A11DB11D78
S1130B908093160490931704A0931804B093190437
S1130BA0BF91AF919F918F910F900FBE0F901F90A7
S1130BB01895E1E8F0E080818E7F808380818D7FCD
S1130BC0808380818B7F80830895E1E9F0E08081D8
S1130BD08E7F808380818D7F808380818B7F8083E3
S1130BE0089585B58E7F85BD85B58D7F85BD85B519
S1130BF08B7F85BD0895CF93DF93CDB7DEB7649720
S1130C000FB6F894DEBF0FBECDBF0E94C8040E9489
S1130C10FF040E948D050E948E04249A569A259AF8
S1130C203F9A2B9A789484E091E00E94A6040F2EB8
S1130C30F8ECCF2ED12CE12CF12CF02D01E010E0BA
S1130C400F2EF0E0AF2EF4E0BF2EF02D0F2EF8EFB4
S1130C508F2EF3E09F2EF02D0F2EFCEF2F2EF3E0BE
S1130C603F2EF02D1B9B81C080910C0490910D04AC
S1130C70892B09F07AC080911A0490911B04892B66
S1130C8061F0479A8FE19EE40197F1F700C00000FC
S1130C90479810921B0410921A0460911C047091DE
S1130CA01D0480911E0490911F04A70196010E94C7
S1130CB0340D653671058105910510F02C9A01C03B
S1130CC02C9880910A0490910B04892B09F47EC01E
S1130CD080911C0490911D04A0911E04B0911F04E6
S1130CE08093F0039093F103A093F203B093F30382
S1130CF040EB51E06CE471E084E192E00E945B011E
S1130D0010920B0410920A0480911C0490911D040B
S1130D10A0911E04B0911F048093F4039093F503F3
S1130D20A093F603B093F7038091F4039091F50335
S1130D30A091F603B091F7034090F0035090F103B3
S1130D406090F2037090F303BC01CD01641975093E
S1130D50860997090E94CF096093EC037093ED0311
S1130D608093EE039093EF0331C080910C04909133
S1130D700D04019759F19FEFE9E6F8E19150E04045
S1130D80F040E1F700C0000010930D0400930C0440
S1130D900E94D9050E94F1050E94E50580E191E0D9
S1130DA00E94A60481E391E00E94A6048AE591E0F2
S1130DB00E94A6048FE791E00E94A60483EB91E0D1
S1130DC00E94A6048BEE91E00E94A6040E949B045C
S1130DD0892B09F447CF0E948604803779F038F4D0
S1130DE0853609F4DBC0873609F41BC128C1823774
S1130DF009F4D9C08A3709F4DBC021C18FE092E03D
S1130E000E94A6046091EC037091ED038091EE03BF
S1130E109091EF030E949909DC01CB014AE0BE01E5
S1130E206F5F7F4F0E94C60DCE0101960E94A604FB
S1130E3084E492E00E94A604809116049091170421
S1130E40A0911804B09119044AE0BE016F5F7F4F6E
S1130E500E94C60DCE0101960E94A60484E692E08B
S1130E600E94A6048091120490911304A09114048A
S1130E70B09115044AE0BE016F5F7F4F0E94C60D1A
S1130E80CE0101960E94A60460911C0470911D0479
S1130E9080911E0490911F044090160450901704F2
S1130EA0609018047090190424E630E040E050E0AB
S1130EB00E94340D24193509C901992324F4882783
S1130EC09927821B930B092E000CAA0BBB0B809352
S1130ED0000490930104A0930204B093030485E8F2
S1130EE092E00E94A6044AE0BE016F5F7F4FF501C5
S1130EF0808191810E94C60DCE0101960E94A604B4
S1130F0060911C0470911D0480911E0490911F0433
S1130F1040901204509013046090140470901504CF
S1130F2024E630E040E050E00E94340D24193509F5
S1130F30C901992324F488279927821B930B092E2E
S1130F40000CAA0BBB0B8093F8039093F903A093B6
S1130F50FA03B093FB0380EB92E00E94A6044AE0FC
S1130F60BE016F5F7F4FF401808191810E94C60DA5
S1130F70CE0101960E94A6048CED92E00E94A60484
S1130F804AE0BE016F5F7F4FF101808191810E9431
S1130F90C60DCE0101960E94A60451C088E093E0DC
S1130FA00E94A6044CC08EE693E00E94A60447C0AB
S1130FB010921C0410921D0410921E0410921F041F
S1130FC01092160410921704109218041092190427
S1130FD0E4E8F0E0118210821092000410920104FF
S1130FE010920204109203041092FC031092FD0369
S1130FF01092FE031092FF03109204041092050451
S113100010920604109207041092F8031092F90348
S11310101092FA031092FB038AEA93E00E94A6045A
S11310200EC087EC93E00E94A6040E948D050E94E6
S1131030C8040E94FF0482EE93E00E94A60410926A
S11310400D0410920C040E948D050E94FF040E945E
S1131050C80408CE1F920F920FB60F9211242F933B
S11310603F938F939F93AF93BF93EF93FF93E6E2E6
S1131070F8E0A081B181858191E0980F9583A80F54
S1131080B11D8091CE008C9385818583828193816B
S113109001969383828380819181248131E0320F90
S11310A03483FC01E20FF11D8081823541F018F494
S11310B0873451F00DC0873639F0823749F495B141
S11310C081E0892785B904C09BB180E289278BB967
S11310D0E6E2F8E084818483FF91EF91BF91AF91C0
S11310E09F918F913F912F910F900FBE0F901F9062
S11310F018951F920F920FB60F9211248F939F93FE
S1131100AF93BF93EF93FF9388B1805888B98091D0
S1131110220890912308892BC1F08091C80085FF93
S113112014C0E0E2F8E0A081B181848191E0980FDD
S11311309483A80FB11D8C918093CE0082819381FA
S113114001979383828384818483FF91EF91BF917C
S1131150AF919F918F910F900FBE0F901F90189594
S11311605058BB27AA270E94C8080C94720A0E94F0
S1131170390A38F00E94400A20F039F49F3F19F4EC
S113118026F40C94360A0EF4E095E7FB0C94300A2E
S1131190E92F0E94970A58F3BA1762077307840766
S11311A0950720F079F4A6F50C94B90A0EF4E095AD
S11311B00B2EBA2FA02D0B01B90190010C01CA010D
S11311C0A0011124FF27591B99F0593F50F4503EB8
S11311D068F11A16F040A22F232F342F4427585FAA
S11311E0F3CF469537952795A795F0405395C9F7C2
S11311F07EF41F16BA0B620B730B840BBAF091507A
S1131200A1F0FF0FBB1F661F771F881FC2F70EC018
S1131210BA0F621F731F841F48F4879577956795EB
S1131220B795F7959E3F08F0B0CF9395880F08F0D7
S11312309927EE0F9795879508950E940C0A08F454
S113124081E008950E94490AE3950C94830A0E9460
S11312503B090C94720A0E94400A58F00E94390A11
S113126040F029F45F3F29F00C94300A51110C949A
S1131270BA0A0C94360A0E94970A68F39923B1F3C8
S1131280552391F3951B550BBB27AA2762177307A8
S1131290840738F09F5F5F4F220F331F441FAA1F3C
S11312A0A9F335D00E2E3AF0E0E832D091505040F8
S11312B0E695001CCAF72BD0FE2F29D0660F771FA6
S11312C0881FBB1F261737074807AB07B0E809F08C
S11312D0BB0B802DBF01FF2793585F4F3AF09E3F11
S11312E0510578F00C94300A0C94BA0A5F3FE4F389
S11312F0983ED4F3869577956795B795F7959F5F54
S1131300C9F7880F911D9695879597F90895E1E09F
S1131310660F771F881FBB1F621773078407BA07FE
S113132020F0621B730B840BBA0BEE1F88F7E09559
S113133008950E94A0096894B1110C94BA0A089502
S11313400E949F0A88F09F5798F0B92F9927B751A8
S1131350B0F0E1F0660F771F881F991F1AF0BA9555
S1131360C9F714C0B13091F00E94B90AB1E00895F0
S11313700C94B90A672F782F8827B85F39F0B93FE2
S1131380CCF3869577956795B395D9F73EF4909508
S11313908095709561957F4F8F4F9F4F0895E89486
S11313A009C097FB3EF490958095709561957F4FA9
S11313B08F4F9F4F9923A9F0F92F96E9BB27939557
S11313C0F695879577956795B795F111F8CFFAF467
S11313D0BB0F11F460FF1BC06F5F7F4F8F4F9F4F98
S11313E016C0882311F096E911C0772321F09EE8F6
S11313F0872F762F05C0662371F096E8862F70E05C
S113140060E02AF09A95660F771F881FDAF7880F35
S11314109695879597F90895990F0008550FAA0B8B
S1131420E0E8FEEF16161706E807F907C0F01216F3
S11314301306E407F50798F0621B730B840B950BF6
S113144039F40A2661F0232B242B252B21F408954B
S11314500A2609F4A140A6958FEF811D811D0895E8
S113146097F99F6780E870E060E008959FEF80EC53
S1131470089500240A9416161706180609060895F6
S113148000240A94121613061406050608950C94F3
S1131490360A0E949F0AD8F3E894E0E0BB279F57DE
S11314A0F0F02AED3FE049EC06C0EE0FBB0F661FDB
S11314B0771F881F28F0B23A62077307840728F061
S11314C0B25A620B730B840BE3959A9572F78038CA
S11314D030F49A95BB0F661F771F881FD2F7904888
S11314E00C940C0C092E0394000C11F4882352F074
S11314F0BB0F40F4BF2B11F460FF04C06F5F7F4F3C
S11315008F4F9F4F0895EF93E0FF07C0A2EA2AEDA3
S11315103FE049EC5FEB0E94C8080E94720A0F90FA
S1131520039401FC9058ECEAF0E00C94460C57FD4F
S11315309058440F551F59F05F3F71F04795880F3D
S113154097FB991F61F09F3F79F0879508951216D4
S113155013061406551FF2CF4695F1DF08C0161680
S113156017061806991FF1CF869571056105089431
S11315700895E894BB2766277727CB0197F9089548
S11315800E940C0A08F48FEF08950E94D80A0C9464
S1131590720A0E94390A38F00E94400A20F095230A
S11315A011F00C94300A0C94360A11240C94BA0AE3
S11315B00E94970A70F3959FC1F3950F50E0551F51
S11315C0629FF001729FBB27F00DB11D639FAA2794
S11315D0F00DB11DAA1F649F6627B00DA11D661FE3
S11315E0829F2227B00DA11D621F739FB00DA11D04
S11315F0621F839FA00D611D221F749F3327A00DBE
S1131600611D231F849F600D211D822F762F6A2F59
S113161011249F5750409AF0F1F088234AF0EE0FBE
S1131620FF1FBB1F661F771F881F91505040A9F7EB
S11316309E3F510580F00C94300A0C94BA0A5F3F27
S1131640E4F3983ED4F3869577956795B795F79527
S1131650E7959F5FC1F7FE2B880F911D969587959F
S113166097F90895FA01EE0FFF1F30962105310511
S1131670A1F16115710561F48038BFE39B0749F15D
S113168068949038810561F08038BFEF9B0741F082
S113169099234AF5FF3FE1053105210519F1E89445
S11316A00894E795D901AA2329F4AB2FBE2FF85F3C
S11316B0D0F310C0FF5F70F4A695E0F7F73950F04F
S11316C019F0FF3A38F49F779F930DD00F9007FCE1
S11316D09058089546F00C94360A60E070E080E873
S11316E09FE308954FE79F775F934F933F932F9323
S11316F00E94A40C2F913F914F915F910E94C50AC3
S11317000C94D80B9F930E94490A0F9007FCEE5F3C
S11317100C94830A19F416F40C94360A0C940A0CEB
S11317200E949F0AB8F39923C9F3B6F39F57550B48
S113173087FF0E94180C0024A0E640EA900180581C
S11317405695979528F4805C660F771F881F20F0C4
S113175026173707480730F4621B730B840B2029C4
S113176031294A2BA69517940794202531254A2719
S113177058F7660F771F881F20F02617370748078A
S113178030F4620B730B840B200D311D411DA095A9
S113179081F7B901842F9158880F969587950895FC
S11317A029F416F00C94300A0C94B90A0C94360AF5
S11317B00E949F0AA8F39638A0F707F80F92E894BE
S11317C02BE33AEA48EB5FE70E94DB0A0F920F92A1
S11317D00F924DB75EB70F920E94EC0CEAECF0E06A
S11317E00E941F0C4F915F91EF91FF91E595EE1FC1
S11317F0FF1F49F0FE57E0684427EE0F441FFA9597
S1131800E1F74195550B0E94660C0F9007FE0C946E
S11318105A0C08959F3F31F0915020F487957795A5
S11318206795B795880F911D9695879597F90895B3
S113183091505040660F771F881FD2F70895DF93A9
S1131840CF931F930F93FF92EF92DF927B018C0152
S1131850689406C0DA2EEF010E94D80AFE01E894CB
S1131860A5912591359145915591A6F3EF010E94DB
S1131870C808FE019701A801DA9469F7DF90EF9098
S1131880FF900F911F91CF91DF9108959F938F93B4
S11318907F936F93FF93EF939B01AC010E94C50A62
S11318A0EF91FF910E941F0C2F913F914F915F91F7
S11318B00C94C50A9B01AC0160E070E080E89FE3F2
S11318C00C9427090C94300A0C940A0C0E949F0A69
S11318D0D8F39923C9F3940F511DA3F391505040A9
S11318E094F059F0882332F0660F771F881F9150C7
S11318F05040C1F79E3F51052CF7880F911D9695D6
S1131900879597F908955F3FACF0983E9CF0BB270C
S1131910869577956795B79508F4B1609395C1F767
S1131920BB0F58F711F460FFE8CF6F5F7F4F8F4F05
S11319309F4FE3CF0C94BA0A16F00C940A0C0C9443
S1131940360A68940C94300A0E949F0AA8F39923DB
S1131950C1F3AEF3DF93CF931F930F93FF92C92F7D
S1131960DD2788232AF02197660F771F881FDAF76F
S113197020E030E040E85FEB9FE3883920F0803ED0
S113198038F021968F770E94B108E2EFF0E004C0AE
S11319900E94B108EFE1F1E00E941F0C8B01BE012F
S11319A0EC01FB2E6F5771097595771F880B990B06
S11319B00E94D10928E132E741E35FE30E94D80A9B
S11319C0AF2D9801AE01FF900F911F91CF91DF9140
S11319D00E94C8080C94720AFA01DC01AA0FBB1F0A
S11319E09B01AC01BF5728F42227332744275078A2
S11319F020C0B75190F4AB2F002446953795279516
S1131A00011CA395D2F3002071F0220F331F441F51
S1131A10B395DAF30ED00C94B00861307105A0E8E8
S1131A208A07B94630F49B01AC01662777278827DB
S1131A309078309621F02083318342835383089534
S1131A4097FB072E16F4009407D077FD09D00E9467
S1131A50560D07FC05D03EF4909581959F4F08954F
S1131A60709561957F4F0895A1E21A2EAA1BBB1BA6
S1131A70FD010DC0AA1FBB1FEE1FFF1FA217B30756
S1131A80E407F50720F0A21BB30BE40BF50B661F6C
S1131A90771F881F991F1A9469F760957095809530
S1131AA090959B01AC01BD01CF010895AA1BBB1BFE
S1131AB051E107C0AA1FBB1FA617B70710F0A61B4A
S1131AC0B70B881F991F5A95A9F780959095BC016B
S1131AD0CD0108958F929F92AF92BF92CF92DF92E1
S1131AE0EF92FF92CF93DF93EC01688179818A8131
S1131AF09B81611571058105910521F464E279EDFD
S1131B008BE597E02DE133EF41E050E00E94FB0DBF
S1131B1049015A019B01AC01A7EAB1E40E941A0EE3
S1131B206B017C01ACEEB4EFA50194010E94280E78
S1131B30DC01CB018C0D9D1DAE1DBF1DB7FF03C085
S1131B400197A109B04888839983AA83BB839F77AF
S1131B50DF91CF91FF90EF90DF90CF90BF90AF9047
S1131B609F908F9008950E946A0D089580E091E0FF
S1131B700E946A0D0895A0E0B0E080930001909364
S1131B800101A0930201B09303010895BB274A30D9
S1131B9031F4992322F4BDE2909581959F4F0C94E2
S1131BA0D20DBB27FB015527AA27880F991FAA1F0F
S1131BB0A41710F0A41B83955051B9F7A05DAA3364
S1131BC008F0A95DA193009779F7B111B19311922F
S1131BD0CB010C94EB0DDC01FC01672F7191772391
S1131BE0E1F7329704C07C916D9370836291AE17D4
S1131BF0BF07C8F30895052E97FB1EF400940E94B6
S1131C00120E57FD07D00E94340D07FC03D04EF48A
S1131C100C94120E50954095309521953F4F4F4F9F
S1131C205F4F089590958095709561957F4F8F4F84
S1131C309F4F08950E942D0EA59F900DB49F900D67
S1131C40A49F800D911D11240895B7FF0C941A0EC2
S1131C500E941A0E821B930B0895A29FB001B39F9A
S1131C60C001A39F700D811D1124911DB29F700DA1
S10F1C70811D1124911D0895F894FFCFEC
S1131C7C0100000057656C636F6D65203A290A00FA
S1131C8C506C6561736520454E544552206F6E65EA
S1131C9C206F6620746865206F7074696F6E3A0AE1
S1131CAC0070203A205072696E7420646174612053
S1131CBC636F6C6C656374656420666F7220657801
S1131CCC706572696D656E740A00652023203A2074
S1131CDC536574AD557020746869732065787065AC
S1131CEC72696D656E74206E756D6265720A007230
S1131CFC2023203A20536574207468652070657223
S1131D0C696F64206F662074686520475245454EA0
S1131D1C204C4544205461736B20746F2023206D38
S1131D2C730A007A203A20526573657420616C6CD6
S1131D3C207661726961626C657320746F207365BF
S1131D4C7420757020666F722061206E6577206533
S1131D5C78706572696D656E740A0067203A204765
S1131D6C6F207369676E616C20666F722073746187
S1131D7C7274206578706572696D656E740A0057AB
S1131D8C6F72737420636173652045786563757431
S1131D9C696F6E2074696D65206F6620486F756776
S1131DAC68205472616E73666F726D20696E206D5B
S1131DBC73203A000A4E756D626572206F66204777
S1131DCC7265656E204C454420746F67676C65734F
S1131DDC203A20000A4E756D626572206F66205998
S1131DEC656C6C6F77204C454420746F67676C6529
S1131DFC73203A20000A4E756D626572206F66205E
S1131E0C6D697373656420646561646C696E657374
S1131E1C202D20475245454E204C4544203A200065
S1131E2C0A4E756D626572206F66206D69737365F9
S1131E3C6420646561646C696E6573202D2059455A
S1131E4C4C4C4F57204C4544203A20000A4E756D9B
S1131E5C626572206F66206D6973736564206465B6
S1131E6C61646C696E6573202D204A495454455243
S1131E7C204C4544203A2000506C65617365206306
S1131E8C6F6E666967757265207468652076617219
S1131E9C6961626C6520477265656E4C4544427598
S1131EAC7379576169742F59656C6C6F774C454421
S1131EBC4275737957616974207661726961626CD9
S1131ECC6520746F206368616E6765207468652093
S1131EDC6578706572696D656E74203A0A00506C91
S1131EEC6561736520636F6E6669677572652047FB
S1131EFC7265656E4C454450574D535020746F2099
S1131F0C7365742050574D2064757479206379631C
S1131F1C6C652074696D653A0A00416C6C207661BD
S1131F2C726961626C65732073657420746F207AB6
S1131F3C65726F203A0A005374617274696E67207B
S1131F4C746865206578706572696D656E742E2E83
S10F1F5C0A00537461727465640A00008A
S9030000FC
