:100000000C9456000C9468000C9468000C946800E2
:100010000C9468000C9468000C9468000C946800C0
:100020000C9468000C940E010C9468000C94680009
:100030000C9468000C9468000C9468000C946800A0
:100040000C9468000C949D000C9468000C9468005B
:100050000C9468000C94C2000C9468000C94680026
:100060000C9468000C9468000C9468000C94680070
:100070000C9468000C9468000C9468000C94680060
:100080000C9468000C9468000C9468000C94680050
:100090000C9468000C9468000C9468000C94680040
:1000A0000C9468000C9468000C94680011241FBE26
:1000B000CFEFDAE0DEBFCDBF21E0A0E0B1E001C0CC
:1000C0001D92AC30B207E1F70E9422010C94C401EA
:1000D0000C9400001092850010928400EFE6F0E08E
:1000E000808182608083E1E8F0E0808182608083AB
:1000F00084B5826084BD80E593EC90938900809301
:1001000088001092070110920601089516BCEEE6D1
:10011000F0E080818260808384B5826084BD85B593
:10012000826085BD8AEF87BD1092020110920301A3
:10013000109204011092050108951F920F920FB6BC
:100140000F9211248F939F93809106019091070144
:10015000019690930701809306018091060190918A
:100160000701889744F09BB180E289278BB91092F0
:100170000701109206019F918F910F900FBE0F9073
:100180001F9018951F920F920FB60F9211248F9304
:100190009F93AF93BF938091020190910301A0912F
:1001A0000401B09105010196A11DB11D80930201CA
:1001B00090930301A0930401B09305018091020183
:1001C00090910301A0910401B09105010897A10548
:1001D000B105D8F08091080190910901A0910A0120
:1001E000B0910B010196A11DB11D80930801909360
:1001F0000901A0930A01B0930B0110920201109221
:1002000003011092040110920501BF91AF919F91DB
:100210008F910F900FBE0F901F9018951F920F9205
:100220000FB60F9211248F939F9381E090E09093EB
:100230000101809300019F918F910F900FBE0F904D
:100240001F9018958FEF8AB980E887B914B82B9A58
:10025000E8E6F0E0808181608083EBE6F0E0808179
:10026000886080830E946A000E94860078940F2E26
:10027000F4EF8F2E99249394A12CB12CF02D0F2EF6
:10028000F8EBCF2EFBE0DF2EE12CF12CF02D412CF2
:10029000712C312C02E11AE7212C512CD8EAC1E64D
:1002A000612C609108017091090180910A0190917F
:1002B0000B01A50194010E94A2016B3F710581050C
:1002C000910510F0479A01C047986091080170911C
:1002D000090180910A0190910B01A70196010E94EA
:1002E000A201613D774081059105D8F2809100011E
:1002F000909101010197A9F6599A842D9EE3A9E4F2
:10030000B72D00000197A109B109D9F759985C9A56
:10031000832D902FA12FB22D00000197A109B109C3
:10032000D9F75C98599A852D9D2FAC2FB62D0000DA
:100330000197A109B109D9F75998109201011092BA
:100340000001AFCFA1E21A2EAA1BBB1BFD010DC0FD
:10035000AA1FBB1FEE1FFF1FA217B307E407F50775
:1003600020F0A21BB30BE40BF50B661F771F881F51
:10037000991F1A9469F760957095809590959B01E7
:0C038000AC01BD01CF010895F894FFCF3F
:00000001FF
