S00C00004C6162322E73726563D7
S11300000C94C8000C94E5000C94E5000C94E500F5
S11300100C94E5000C94E5000C94E5000C94E500C8
S11300200C94E5000C946F020C94E5000C94E5002C
S11300300C94E5000C94E5000C94E5000C94E500A8
S11300400C94E5000C94E5000C94E5000C94E50098
S11300500C94E5000C9403020C94E5000C94E50068
S11300600C94E5000C94E5000C94E5000C94E50078
S11300700C94E5000C94E5000C94E5000C94E50068
S11300800C94E5000C94E5000C94E5000C94E50058
S11300900C94E5000C94E5000C94E5000C94E50048
S11300A00C94E5000C94E5000C94E500F004D205F2
S11300B0D205D205D205D205D205D205D205D20584
S11300C0D205D205A604D2054B04D205D205D20529
S11300D05005D205D205D205D205D205D205D205E6
S11300E0D205D205D205D205D205D2052005D20506
S11300F0D205D205D205D205D205D205D205D20544
S1130100D205D205CB04D2057C04D205C70507630A
S11301104236B79BD8A71A39685618AEBAAB558C75
S11301201D3CB7CC5763BD6DEDFD753EF6177231BE
S1130130BF000000803F08000000BE922449123E28
S1130140ABAAAA2ABECDCCCC4C3E00000080BEABEC
S1130150AAAAAA3E00000000BF000000803F0000E1
S1130160000000084178D3BB4387D1133D190E3CEE
S1130170C3BD4282AD2B3E68EC8276BED98FE1A925
S11301803E4C80EFFFBE01C4FF7F3F000000000033
S113019011241FBECFEFDAE0DEBFCDBF13E0A0E035
S11301A0B1E0E8E2F8E102C005900D92A23CB1078B
S11301B0D9F723E0A2ECB3E001C01D92A33DB2073E
S11301C0E1F70E94D8020C94120C0C9400009B01DD
S11301D0215031091216130684F4FC01E60FF71FAF
S11301E0DC0180E090E04C9152915D934083019654
S11301F02150310982179307B4F30895EF92FF92C7
S11302000F931F93CF93DF938B019A01009799F07B
S1130210FB01C0E0D0E00F2EFAE0EF2EF12CF02D20
S11302202196B7010E948D0B805D8193862F972FB5
S11302300097B1F702C0C0E0D0E0C217D30764F45E
S1130240F801EC0FFD1FA801420F531F80E38193B7
S1130250E417F507E1F7E901BE01C8010E94E700D0
S1130260F801EC0FFD1F1082CE01DF91CF911F9199
S11302700F91FF90EF9008952F923F924F925F92CB
S11302806F927F928F929F92AF92BF92CF92DF92A2
S1130290EF92FF920F931F93CF93DF934B015C0177
S11302A08A01E9010E94D7086B017C0140E050E01B
S11302B0B801C6010E94FE001C012097A9F1F801B3
S11302C0E80FF91F8EE28083BE010D2E000C880B0F
S11302D0990B0E940F099B01AC0160E070E080E281
S11302E091E40E94080A2B013C01B601DD0C880B45
S11302F0990B0E940F099B01AC01C501B4010E9436
S1130300F8079B01AC018FEF281A380A020D131D60
S1130310C301B2010E949B090E94D708DC01CB01F2
S1130320AE01B8010E94FE00DF91CF911F910F91A1
S1130330FF90EF90DF90CF90BF90AF909F908F9001
S11303407F906F905F904F903F902F90089589E138
S113035090E09093CD008093CC0088E18093C90015
S11303608EE08093CA000895E8ECF0E0908195FF58
S1130370FDCF8093CE000895E8ECF0E080818823DF
S1130380ECF78091CE0008958091C800082E000CEF
S1130390990B892F881F8827881F90E00895EF9272
S11303A0FF920F931F93CF93DF938C017C01C0E0E6
S11303B0D0E006C0F70181917F010E94B40121962B
S11303C0F80101900020E9F73197E01BF10BCE17FB
S11303D0DF0780F3DF91CF911F910F91FF90EF9092
S11303E0089516BCEEE6F0E080818260808384B5D7
S11303F0826084BD85B5826085BD85B5816085BD1B
S11304008AEF87BD08951F920F920FB60F921124A1
S11304108F939F93AF93BF938091CF039091D00319
S1130420A091D103B091D2030196A11DB11D809377
S1130430CF039093D003A093D103B093D2038091C0
S1130440CF039091D003A091D103B091D20380FD4A
S113045011C08091CB039091CC03092E000CAA0B00
S1130460BB0B8093C6039093C703A093C803B093B8
S1130470C9032CC08091CF039091D003A091D103E4
S1130480B091D20381709927AA27B078BB2354F482
S11304900197A109B1098E6F9F6FAF6FBF6F01966E
S11304A0A11DB11D0197A105B10581F48091CB0374
S11304B09091CC03092E000CAA0BBB0B8093C203B2
S11304C09093C303A093C403B093C503BF91AF91AA
S11304D09F918F910F900FBE0F901F9018951F92B0
S11304E00F920FB60F9211242F933F934F935F9364
S11304F06F938F939F9393B192959170292F83B1AA
S113050085FB882780F9382F6091CE034091CD0375
S1130510941751F04091CB035091CC034F5F5F4F40
S11305205093CC034093CB03361751F04091CB0347
S11305305091CC03415051095093CC034093CB03C9
S1130540222329F0332319F021E02093CA03909346
S1130550CE038093CD039F918F916F915F914F91C3
S11305603F912F910F900FBE0F901F9018951092EE
S1130570850010928400E0E8F0E08081816080834F
S1130580808182608083A1E8B0E08C9188608C9344
S11305908C9180618C938C9181608C93808180623A
S11305A0808380E197E29093890080938800089586
S11305B0CF93DF93CDB7DEB76E970FB6F894DEBF57
S11305C00FBECDBF0E94A7010E94B7020E94F10195
S11305D0269AEBE6F0E080818061808380818062EE
S11305E08083E8E6F0E08081816080837894809164
S11305F0060190910701A0910801B09109016C01D5
S11306007D01CC0CDD1CEE1CFF1CCC0CDD1CEE1C97
S1130610FF1CCC0CDD1CEE1CFF1CC81AD90AEA0A0C
S1130620FB0A260137018AE091E00E94CF0183E1B1
S113063091E00E94CF018091060190910701A09161
S11306400801B09109014AE0BE016F5F7F4F0E942B
S1130650DD0BCE0101960E94CF018CE092E00E9456
S1130660CF0180E391E00E94CF014AE0BE016F5FB9
S11306707F4FC6010E94DD0BCE0101960E94CF017F
S11306808CE092E00E94CF018DE491E00E94CF01C2
S11306904AE0BE016F5F7F4F8091CB039091CC0302
S11306A00E94DD0BCE0101960E94CF018CE092E006
S11306B00E94CF011B861C861D861E86212C312C90
S11306C0812C912C5401689481F802E010E0188A7E
S11306D01F860FC0A3019201281939094A095B0931
S11306E049015A012601370104C02601370101E0FE
S11306F010E035E083169104A104B1040CF089C024
S11307000130110509F085C04F855889452B41F406
S11307108CE092E00E94CF0151E05F87188A79C093
S11307208F859889019751F494EC491A99E0590AF4
S113073061087108A2E0AF87188A6BC0EF85F88959
S1130740329709F066C0F3E24F0E511C611C711C14
S1130750A0910401B09105012091C2033091C3031B
S11307604091C4035091C5032F87388B498B5A8B12
S1130770C090C603D090C703E090C803F090C903AB
S11307802091000130910101409102015091030137
S11307902B8B3C8B4D8B5E8BA50194010E94A70B88
S11307A00E940F094B015C016F85788989899A89B8
S11307B06C197D098E099F090E940F092FE632E109
S11307C043E85AE30E9465080E94D7089B017723F7
S11307D024F422273327261B370BB901330F880B48
S11307E0990B0E940F092B893C894D895E890E94CF
S11307F09B099B01AC01C501B4010E94F9070E9449
S1130800DE08AAE8B0E011967C936E93B3E0BF874C
S1130810188AE090CB03F090CC0347010F2C000C16
S1130820AA08BB082114310419F58AE691E00E9454
S1130830CF018CE991E00E94CF018EEC91E00E94FF
S1130840CF018EEE91E00E94CF018EE092E00E94F3
S1130850CF018FE292E00E94CF0180E592E00E94F6
S1130860CF0185E892E00E94CF0122242394312C09
S11308700E94C401892B09F492C10E94BC0190E03A
S1130880FC01E454F109E133F10508F08BC1EA5AA3
S1130890FF4F0C94A10B73016201E6E4CE0ED11C50
S11308A0E11CF11C8091060190910701A0910801BF
S11308B0B09109010A96A11DB11D80930601909380
S11308C00701A0930801B093090187EA92E00E940E
S11308D0CF018091060190910701A0910801B09188
S11308E009014AE0BE016F5F7F4F0E94DD0BCE011C
S11308F001960E94CF0158C173016201F6E4CF1A38
S1130900D108E108F1088091060190910701A091B6
S11309100801B09109010A97A109B1098093060160
S113092090930701A0930801B093090185ED92E02B
S11309300E94CF014AE0BE016F5F7F4FC6010E9453
S1130940DD0BCE0101960E94CF012EC180910401DE
S1130950909105010196909305018093040187EF1E
S113096092E00E94CF016091040170910501072E6D
S1130970000C880B990B0E940F0921E030E0AE01B6
S11309804F5F5F4F0E943C01CE0101960E94CF0150
S11309907301620109C180910401909105010197DD
S11309A0909305018093040187EF92E00E94CF01A8
S11309B06091040170910501072E000C880B990BBE
S11309C00E940F0921E030E0AE014F5F5F4F0E94AB
S11309D03C01CE0101960E94CF0173016201E4C083
S11309E060910001709101018091020190910301D5
S11309F020E030E040E05FE30E94F90760930001EB
S1130A007093010180930201909303018BE093E0C2
S1130A100E94CF0160910001709101018091020157
S1130A209091030121E030E0AE014F5F5F4F0E94DF
S1130A303C01CE0101960E94CF0173016201B4C052
S1130A406091000170910101809102019091030174
S1130A5020E030E040E05FE30E94F807609300018B
S1130A607093010180930201909303018EE193E05E
S1130A700E94CF01609100017091010180910201F7
S1130A809091030121E030E0AE014F5F5F4F0E947F
S1130A903C01CE0101960E94CF017301620184C022
S1130AA082E393E00E94CF016091040170910501FB
S1130AB0072E000C880B990B0E940F0921E030E0EF
S1130AC0AE014F5F5F4F0E943C01CE0101960E9430
S1130AD0CF018CE092E00E94CF0189E493E00E9470
S1130AE0CF01609100017091010180910201909108
S1130AF0030121E030E0AE014F5F5F4F0E943C01F3
S1130B00CE0101960E94CF018CE092E00E94CF01B9
S1130B1080E693E00E94CF014AE0BE016F5F7F4F01
S1130B20C7010E94DD0BCE0101960E94CF018CE02B
S1130B3092E00E94CF0183E893E00E94CF014AE053
S1130B40BE016F5F7F4FC2010E94DD0BCE01019693
S1130B500E94CF018CE092E00E94CF0182EA93E0F0
S1130B600E94CF018091060190910701A091080194
S1130B70B09109014AE0BE016F5F7F4F0E94DD0B17
S1130B80CE0101960E94CF01730162010DC0481489
S1130B9059046A047B0469F47501640105C0730196
S1130BA0620102C0730162010130110509F092CDA6
S1130BB002C0730162018091CB039091CC039C012C
S1130BC02C193D09490122F488249924821A930A94
S1130BD0092C000CAA08BB08092E000CAA0BBB0B9D
S1130BE0C816D906EA06FB060CF0EBC04AE0BE01C3
S1130BF06F5F7F4F8B859C850E94DD0BCE01019634
S1130C000E94CF018CE092E00E94CF01A0910401E8
S1130C10B09105012091C2033091C3034091C403F4
S1130C205091C5032B873C874D875E874090C60350
S1130C305090C7036090C8037090C90320910001CD
S1130C403091010140910201509103012B8B3C8BA7
S1130C504D8B5E8BA50194010E94A70B0E940F0986
S1130C606F8B788F898F9A8F6B857C858D859E8518
S1130C7064197509860997090E940F092FE632E164
S1130C8043E85AE30E9465080E94D7089B01772332
S1130C9024F422273327261B370BB901330F880B83
S1130CA0990B0E940F092B893C894D895E890E940A
S1130CB09B099B01AC016F89788D898D9A8D0E9467
S1130CC0F9070E94D7086B877C878D879E876031E0
S1130CD07742810591050CF068C0A0910401B091A0
S1130CE005012091C2033091C3034091C403509184
S1130CF0C5032B8B3C8B4D8B5E8B4090C603509071
S1130D00C7036090C8037090C9032091000130911B
S1130D10010140910201509103012F8B388F498FBB
S1130D205A8FA50194010E94A70B0E940F096B8F93
S1130D307C8F8D8F9E8F6B897C898D899E896419A8
S1130D407509860997090E940F092FE632E143E8E5
S1130D505AE30E9465080E94D7089B01772324F474
S1130D6022273327261B370BB901330F880B990B26
S1130D700E940F092F89388D498D5A8D0E949B0935
S1130D809B01AC016B8D7C8D8D8D9E8D0E94F9072E
S1130D900E94DE08AAE8B0E011967C936E93729AE2
S1130DA02601370101E010E0A4CC20E137E2EAE8B3
S1130DB0F0E031832083729A2601370101E010E0CC
S1130DC098CC8C159D05AE05BF050CF08ECC80919A
S1130DD0C2039091C303A091C403B091C5030091D1
S1130DE0C6031091C7032091C8033091C903BC0105
S1130DF0CD01601B710B820B930B0E940F092FE630
S1130E0032E143E85AE30E9465080E94D7089B0137
S1130E10772324F422273327261B370B4AE0BE010D
S1130E206F5F7F4FC9010E94DD0BCE0101960E94C6
S1130E30CF018CE092E00E94CF01A0910401B09117
S1130E4005012091C2033091C3034091C403509122
S1130E50C5032B873C874D875E874090C60350901F
S1130E60C7036090C8037090C903209100013091BA
S1130E70010140910201509103012B8B3C8B4D8B5E
S1130E805E8BA50194010E94A70B0E940F096F8B32
S1130E90788F898F9A8F6B857C858D859E85641963
S1130EA07509860997090E940F092FE632E143E884
S1130EB05AE30E9465080E94D7089B01772324F413
S1130EC022273327261B370BB901330F880B990BC5
S1130ED00E940F092B893C894D895E890E949B09D8
S1130EE09B01AC016F89788D898D9A8D0E94F907D9
S1130EF00E94D7086B877C878D879E8760317742F5
S1130F00810591050CF068C0A0910401B091050120
S1130F102091C2033091C3034091C4035091C5038F
S1130F202B8B3C8B4D8B5E8B4090C6035090C7033C
S1130F306090C8037090C9032091000130910101B1
S1130F4040910201509103012F8B388F498F5A8FA2
S1130F50A50194010E94A70B0E940F096B8F7C8F3F
S1130F608D8F9E8F6B897C898D899E896419750903
S1130F70860997090E940F092FE632E143E85AE3F4
S1130F800E9465080E94D7089B01772324F4222736
S1130F903327261B370BB901330F880B990B0E949B
S1130FA00F092F89388D498D5A8D0E949B099B0109
S1130FB0AC016B8D7C8D8D8D9E8D0E94F9070E94F6
S1130FC0DE08AAE8B0E011967C936E93729826012D
S1130FD0370101E010E08DCB20E137E2EAE8F0E0F0
S1130FE03183208372982601370101E010E081CB20
S1130FF05058BB27AA270E9410080C9461090E942C
S1131000530938F00E945A0920F039F49F3F19F42B
S113101026F40C9450090EF4E095E7FB0C944A096D
S1131020E92F0E94720958F3BA17620773078407FD
S1131030950720F079F4A6F50C9494090EF4E09544
S11310400B2EBA2FA02D0B01B90190010C01CA017E
S1131050A0011124FF27591B99F0593F50F4503E29
S113106068F11A16F040A22F232F342F4427585F1B
S1131070F3CF469537952795A795F0405395C9F733
S11310807EF41F16BA0B620B730B840BBAF09150EB
S1131090A1F0FF0FBB1F661F771F881FC2F70EC08A
S11310A0BA0F621F731F841F48F48795779567955D
S11310B0B795F7959E3F08F0B0CF9395880F08F049
S11310C09927EE0F9795879508950E9479080C94B7
S11310D061090E945A0958F00E94530940F029F40A
S11310E05F3F29F00C944A0951110C9495090C9412
S11310F050090E94720968F39923B1F3552391F3BF
S1131100951B550BBB27AA2762177307840738F072
S11311109F5F5F4F220F331F441FAA1FA9F335D0CF
S11311200E2E3AF0E0E832D091505040E695001C83
S1131130CAF72BD0FE2F29D0660F771F881FBB1F3D
S1131140261737074807AB07B0E809F0BB0B802D1B
S1131150BF01FF2793585F4F3AF09E3F510578F047
S11311600C944A090C9495095F3FE4F3983ED4F338
S1131170869577956795B795F7959F5FC9F7880F1B
S1131180911D9695879597F90895E1E0660F771F6D
S1131190881FBB1F621773078407BA0720F0621BFE
S11311A0730B840BBA0BEE1F88F7E09508950E9429
S11311B0DE086894B1110C94950908950E947A0987
S11311C088F09F5798F0B92F9927B751B0F0E1F004
S11311D0660F771F881F991F1AF0BA95C9F714C0B4
S11311E0B13091F00E949409B1E008950C949409EF
S11311F0672F782F8827B85F39F0B93FCCF38695ED
S113120077956795B395D9F73EF490958095709549
S113121061957F4F8F4F9F4F0895E89409C097FBC6
S11312203EF490958095709561957F4F8F4F9F4FB9
S11312309923A9F0F92F96E9BB279395F6958795FD
S113124077956795B795F111F8CFFAF4BB0F11F4C0
S113125060FF1BC06F5F7F4F8F4F9F4F16C0882367
S113126011F096E911C0772321F09EE8872F762F9D
S113127005C0662371F096E8862F70E060E02AF0DE
S11312809A95660F771F881FDAF7880F96958795CA
S113129097F9089597F99F6780E870E060E00895F2
S11312A09FEF80EC089500240A941616170618067A
S11312B00906089500240A94121613061406050656
S11312C00895092E0394000C11F4882352F0BB0FE7
S11312D040F4BF2B11F460FF04C06F5F7F4F8F4F4A
S11312E09F4F089557FD9058440F551F59F05F3F85
S11312F071F04795880F97FB991F61F09F3F79F034
S113130087950895121613061406551FF2CF4695B5
S1131310F1DF08C0161617061806991FF1CF869537
S11313207105610508940895E894BB27662777271B
S1131330CB0197F908950E94AE090C9461090E94AB
S1131340530938F00E945A0920F0952311F00C94A7
S11313504A090C94500911240C9495090E947209AD
S113136070F3959FC1F3950F50E0551F629FF001F4
S1131370729FBB27F00DB11D639FAA27F00DB11D0D
S1131380AA1F649F6627B00DA11D661F829F222796
S1131390B00DA11D621F739FB00DA11D621F839F1D
S11313A0A00D611D221F749F3327A00D611D231FF3
S11313B0849F600D211D822F762F6A2F11249F5741
S11313C050409AF0F1F088234AF0EE0FFF1FBB1F44
S11313D0661F771F881F91505040A9F79E3F510503
S11313E080F00C944A090C9495095F3FE4F3983E0D
S11313F0D4F3869577956795B795F795E7959F5FAD
S1131400C1F7FE2B880F911D9695879597F908953E
S1131410FA01EE0FFF1F309621053105A1F1611588
S1131420710561F48038BFE39B0749F168949038F3
S1131430810561F08038BFEF9B0741F099234AF59D
S1131440FF3FE1053105210519F1E8940894E7957A
S1131450D901AA2329F4AB2FBE2FF85FD0F310C013
S1131460FF5F70F4A695E0F7F73950F019F0FF3AF2
S113147038F49F779F930DD00F9007FC90580895F0
S113148046F00C94500960E070E080E89FE3089512
S11314904FE79F775F934F933F932F930E94030BE4
S11314A02F913F914F915F910E949B090C94600A88
S11314B029F416F00C944A090C9494090C945009DC
S11314C00E947A09A8F39638A0F707F80F92E894D7
S11314D02BE33AEA48EB5FE70E94B1090F920F92BF
S11314E00F924DB75EB70F920E944B0BEEE0F1E006
S11314F00E94920A4F915F91EF91FF91E595EE1F43
S1131500FF1F49F0FE57E0684427EE0F441FFA9589
S1131510E1F74195550B0E94C50A0F9007FE0C9404
S1131520B90A0895DF93CF931F930F93FF92EF921D
S1131530DF927B018C01689406C0DA2EEF010E94D1
S1131540AE09FE01E894A5912591359145915591F7
S1131550A6F3EF010E941008FE019701A801DA9496
S113156069F7DF90EF90FF900F911F91CF91DF917A
S113157008959B01AC0160E070E080E89FE30C9467
S113158065080C944A090C947F0B0E947A09D8F3DD
S11315909923C9F3940F511DA3F39150504094F033
S11315A059F0882332F0660F771F881F91505040FE
S11315B0C1F79E3F51052CF7880F911D969587958D
S11315C097F908955F3FACF0983E9CF0BB27869551
S11315D077956795B79508F4B1609395C1F7BB0FFC
S11315E058F711F460FFE8CF6F5F7F4F8F4F9F4F25
S11315F0E3CF0C94950916F00C947F0B0C945009CE
S113160068940C944A090E947A09A8F39923C1F3B7
S1131610AEF3DF93CF931F930F93FF92C92FDD2770
S113162088232AF02197660F771F881FDAF720E0B6
S113163030E040E85FEB9FE3883920F0803E38F0EB
S113164021968F770E94F907E6E3F1E004C00E9437
S1131650F907E3E6F1E00E94920A8B01BE01EC0176
S1131660FB2E6F5771097595771F880B990B0E9494
S11316700F0928E132E741E35FE30E94AE09AF2D91
S11316809801AE01FF900F911F91CF91DF910E94BD
S113169010080C946109FA01DC01AA0FBB1F9B011D
S11316A0AC01BF5728F4222733274427507820C0A1
S11316B0B75190F4AB2F0024469537952795011C1C
S11316C0A395D2F3002071F0220F331F441FB3956A
S11316D0DAF30ED00C94F80761307105A0E88A079C
S11316E0B94630F49B01AC016627772788279078A8
S11316F0309621F0208331834283538308959F3FA2
S113170031F0915020F4879577956795B795880FB8
S1131710911D9695879597F9089597FB072E16F4D2
S1131720009407D077FD09D00E94AF0B07FC05D0C9
S11317303EF4909581959F4F0895709561957F4FE4
S11317400895EE0FFF1F0590F491E02D0994B7FF63
S11317500C94C30B0E94C30B821B930B0895AA1B0A
S1131760BB1B51E107C0AA1FBB1FA617B70710F088
S1131770A61BB70B881F991F5A95A9F780959095BA
S1131780BC01CD0108950E94CE0BA59F900DB49F7E
S1131790900DA49F800D911D11240895A29FB00166
S11317A0B39FC001A39F700D811D1124911DB29F91
S11317B0700D811D1124911D0895BB274A3031F409
S11317C0992322F4BDE2909581959F4F0C94E90BE7
S11317D0BB27FB015527AA27880F991FAA1FA41707
S11317E010F0A41B83955051B9F7A05DAA3308F0FB
S11317F0A95DA193009779F7B111B1931192CB012F
S11318000C94020CDC01FC01672F71917723E1F742
S1131810329704C07C916D9370836291AE17BF07B9
S10B1820C8F30895F894FFCF0A
S1131828000040400D005A00000057656C636F6D5E
S1131838650A0054617267657420706F736974690E
S11318486F6E20696E20646567726565203A2000B2
S113185854617267657420706F736974696F6E2060
S1131868696E20636F756E7473203A200043757235
S113187872656E7420706F736974696F6E20696E17
S113188820636F756E74203A2000456E746572206B
S113189827522720746F20696E637265617365200F
S11318A8746865207265666572656E636520627921
S11318B8203130206465677265650A00456E746579
S11318C8722027722720746F20696E6372656173B2
S11318D86520746865207265666572656E63652047
S11318E86279203130206465677265650A00456E47
S11318F87465722027502720746F20696E6372659F
S1131908617365204B702062792031200A00456E8E
S11319187465722027702720746F2064656372656C
S1131928617365204B702062792031200A00456E6E
S11319387465722027442720746F20696E6372656A
S1131948617365204B6420627920302E350A004586
S11319586E7465722027642720746F20646563722F
S113196865617365204B6420627920302E350A0046
S1131978456E7465722027562720746F2076696532
S1131988772063757272656E742076616C75657301
S1131998206F66204B642C204B702C2050722C2016
S11319A8506D200A00456E746572202774272074D0
S11319B86F20537461727420746865207472616A4C
S11319C86563746F7279004E657720726566657217
S11319D8656E636520706F736974696F6E207365D3
S11319E87420746F28696E2064656772656573294D
S11319F8203A200A004E6577207265666572656E26
S1131A08636520706F736974696F6E2073657420E1
S1131A18746F203A200A004E65772076616C7565EC
S1131A28206F66206B70203A200A004E6577207676
S1131A38616C7565206F66206B64203A20004E65E2
S1131A48772076616C7565206F66206B64203A2078
S1131A580A0043757272656E742076616C75652030
S1131A686F66206B70203A200043757272656E743D
S1131A782076616C7565206F66206B64203A2000BF
S1131A884D6561737572656420706F736974696FED
S1131A986E2027506D2720696E20636F756E742041
S1131AA83A20005265666572656E636520706F73CF
S1131AB86974696F6E20696E20636F756E74203A5D
S1131AC820005265666572656E636520706F736980
S1131AD874696F6E20696E20646567726565203A63
S1051AE82000D8
S9030000FC
