:100000000C94C8000C94E5000C94E5000C94E500F9
:100010000C94E5000C94E5000C94E5000C94E500CC
:100020000C94E5000C946F020C94E5000C94E50030
:100030000C94E5000C94E5000C94E5000C94E500AC
:100040000C94E5000C94E5000C94E5000C94E5009C
:100050000C94E5000C9403020C94E5000C94E5006C
:100060000C94E5000C94E5000C94E5000C94E5007C
:100070000C94E5000C94E5000C94E5000C94E5006C
:100080000C94E5000C94E5000C94E5000C94E5005C
:100090000C94E5000C94E5000C94E5000C94E5004C
:1000A0000C94E5000C94E5000C94E500DF04C10518
:1000B000C105C105C105C105C105C105C105C10510
:1000C000C105C1059504C1053A04C105C105C105B5
:1000D0003F05C105C105C105C105C105C105C10572
:1000E000C105C105C105C105C105C1050F05C10592
:1000F000C105C105C105C105C105C105C105C105D0
:10010000C105C105BA04C1056B04C105B605076385
:100110004236B79BD8A71A39685618AEBAAB558C79
:100120001D3CB7CC5763BD6DEDFD753EF6177231C2
:10013000BF000000803F08000000BE922449123E2C
:10014000ABAAAA2ABECDCCCC4C3E00000080BEABF0
:10015000AAAAAA3E00000000BF000000803F0000E5
:10016000000000084178D3BB4387D1133D190E3CF2
:10017000C3BD4282AD2B3E68EC8276BED98FE1A929
:100180003E4C80EFFFBE01C4FF7F3F000000000037
:1001900011241FBECFEFDAE0DEBFCDBF14E0A0E038
:1001A000B1E0E4EAF7E102C005900D92AA37B10789
:1001B000D9F724E0AAE7B4E001C01D92AB38B2073A
:1001C000E1F70E94D8020C94D00B0C9400009B0124
:1001D000215031091216130684F4FC01E60FF71FB3
:1001E000DC0180E090E04C9152915D934083019658
:1001F0002150310982179307B4F30895EF92FF92CB
:100200000F931F93CF93DF938B019A01009799F07F
:10021000FB01C0E0D0E00F2EFAE0EF2EF12CF02D24
:100220002196B7010E944B0B805D8193862F972FFB
:100230000097B1F702C0C0E0D0E0C217D30764F462
:10024000F801EC0FFD1FA801420F531F80E38193BB
:10025000E417F507E1F7E901BE01C8010E94E700D4
:10026000F801EC0FFD1F1082CE01DF91CF911F919D
:100270000F91FF90EF9008952F923F924F925F92CF
:100280006F927F928F929F92AF92BF92CF92DF92A6
:10029000EF92FF920F931F93CF93DF934B015C017B
:1002A0008A01E9010E9495086B017C0140E050E061
:1002B000B801C6010E94FE001C012097A9F1F801B7
:1002C000E80FF91F8EE28083BE010D2E000C880B13
:1002D000990B0E94CD089B01AC0160E070E080E2C8
:1002E00091E40E94C6092B013C01B601DD0C880B8C
:1002F000990B0E94CD089B01AC01C501B4010E947D
:10030000B6079B01AC018FEF281A380A020D131DA6
:10031000C301B2010E9459090E949508DC01CB017A
:10032000AE01B8010E94FE00DF91CF911F910F91A5
:10033000FF90EF90DF90CF90BF90AF909F908F9005
:100340007F906F905F904F903F902F90089589E13C
:1003500090E09093CD008093CC0088E18093C90019
:100360008EE08093CA000895E8ECF0E0908195FF5C
:10037000FDCF8093CE000895E8ECF0E080818823E3
:10038000ECF78091CE0008958091C800082E000CF3
:10039000990B892F881F8827881F90E00895EF9276
:1003A000FF920F931F93CF93DF938C017C01C0E0EA
:1003B000D0E006C0F70181917F010E94B40121962F
:1003C000F80101900020E9F73197E01BF10BCE17FF
:1003D000DF0780F3DF91CF911F910F91FF90EF9096
:1003E000089516BCEEE6F0E080818260808384B5DB
:1003F000826084BD85B5826085BD85B5816085BD1F
:100400008AEF87BD08951F920F920FB60F921124A5
:100410008F939F93AF93BF938091870490918804AB
:10042000A0918904B0918A040196A11DB11D809309
:10043000870490938804A0938904B0938A048091E0
:10044000870490918804A0918904B0918A0480FD6A
:1004500011C08091830490918404092E000CAA0B92
:10046000BB0B80937E0490937F04A0938004B09391
:1004700081042CC08091870490918804A091890404
:10048000B0918A0481709927AA27B078BB2354F4CD
:100490000197A109B1098E6F9F6FAF6FBF6F019672
:1004A000A11DB11D0197A105B10581F480918304BF
:1004B00090918404092E000CAA0BBB0B80937A0444
:1004C00090937B04A0937C04B0937D04BF91AF9183
:1004D0009F918F910F900FBE0F901F9018951F92B4
:1004E0000F920FB60F9211242F933F934F935F9368
:1004F0006F938F939F9393B192959170292F83B1AE
:1005000085FB882780F9382F609186044091850407
:10051000941751F040918304509184044F5F5F4FD2
:100520005093840440938304361751F04091830420
:1005300050918404415051095093840440938304A2
:10054000222329F0332319F021E020938204909391
:100550008604809385049F918F916F915F914F9155
:100560003F912F910F900FBE0F901F9018951092F2
:10057000850010928400E0E8F0E080818160808353
:10058000808182608083A1E8B0E08C9188608C9348
:100590008C9180618C938C9181608C93808180623E
:1005A000808380E197E2909389008093880008958A
:1005B000CF93DF93CDB7DEB76A970FB6F894DEBF5F
:1005C0000FBECDBF0E94A7010E94B7020E94F10199
:1005D000269AEBE6F0E080818061808380818062F2
:1005E0008083E8E6F0E080818160808378944091A8
:1005F0000601509107016091080170910901DB012A
:10060000CA01880F991FAA1FBB1F880F991FAA1F15
:10061000BB1F880F991FAA1FBB1F2C013D01441A45
:10062000550A660A770A8AE091E00E94CF0183E1C9
:1006300091E00E94CF0184EC92E00E94CF018CE314
:1006400091E00E94CF0184EC92E00E94CF018AE603
:1006500091E00E94CF014AE0BE016F5F7F4F809121
:100660008304909184040E949B0BCE0101960E940A
:10067000CF0184EC92E00E94CF01212C312C812CFF
:10068000912C5401689481F802E010E01C861B86CE
:100690000FC0A3019201281939094A095B094901D0
:1006A0005A012601370104C02601370101E010E09C
:1006B00032E383169104A104B1040CF089C0013027
:1006C000110509F085C04B855C85452B41F484EC10
:1006D00092E00E94CF0151E05B871C8679C08B8538
:1006E0009C85019751F494EC491A99E0590A6108E4
:1006F0007108A2E0AB871C866BC0EB85FC85329746
:1007000009F066C0F3E24F0E511C611C711CA091F0
:100710000401B091050120917A0430917B0440914D
:100720007C0450917D042B873C874D875E87C09069
:100730007E04D0907F04E0908004F09081042091AA
:1007400000013091010140910201509103012F8776
:10075000388B498B5A8BA50194010E94650B0E942E
:10076000CD084B015C016B857C858D859E856C1960
:100770007D098E099F090E94CD082FE632E143E8EA
:100780005AE30E9423080E9495089B01772324F4D2
:1007900022273327261B370BB901330F880B990B00
:1007A0000E94CD082F85388949895A890E945909A4
:1007B0009B01AC01C501B4010E94B7070E949C08CF
:1007C000AAE8B0E011967C936E93B3E0BB871C86D9
:1007D000E0908304F090840447010F2C000CAA08D9
:1007E000BB082114310499F587E891E00E94CF01FC
:1007F00083EC91E00E94CF0182EF91E00E94CF0153
:1008000082E192E00E94CF018DE392E00E94CF014D
:100810008DE592E00E94CF0186E892E00E94CF0130
:1008200086EA92E00E94CF0186EC92E00E94CF011E
:1008300087EE92E00E94CF0188E093E00E94CF0112
:100840008DE393E00E94CF0122242394312C0E9457
:10085000C401892B09F492C10E94BC0190E0FC0103
:10086000E454F109E133F10508F08BC1EA5AFF4F76
:100870000C945F0B73016201E6E4CE0ED11CE11C07
:10088000F11C8091060190910701A0910801B0919F
:1008900009010A96A11DB11D8093060190930701DD
:1008A000A0930801B09309018FE593E00E94CF0166
:1008B0008091060190910701A0910801B091090172
:1008C0004AE0BE016F5F7F4F0E949B0BCE010196F5
:1008D0000E94CF0158C173016201F6E4CF1AD1081A
:1008E000E108F1088091060190910701A0910801AB
:1008F000B09109010A97A109B1098093060190936B
:100900000701A0930801B09309018DE893E00E94CC
:10091000CF014AE0BE016F5F7F4FC6010E949B0B73
:10092000CE0101960E94CF012EC1809104019091C9
:100930000501019690930501809304018FEA93E0ED
:100940000E94CF016091040170910501072E000CF7
:10095000880B990B0E94CD0821E030E0AE014F5F7B
:100960005F4F0E943C01CE0101960E94CF017301AE
:10097000620109C180910401909105010197909352
:100980000501809304018FEA93E00E94CF016091FA
:10099000040170910501072E000C880B990B0E9431
:1009A000CD0821E030E0AE014F5F5F4F0E943C0177
:1009B000CE0101960E94CF0173016201E4C06091F3
:1009C000000170910101809102019091030120E0EA
:1009D00030E040E05FE30E94B7076093000170934E
:1009E0000101809302019093030183EC93E00E9444
:1009F000CF016091000170910101809102019091FD
:100A0000030121E030E0AE014F5F5F4F0E943C01E7
:100A1000CE0101960E94CF0173016201B4C06091C2
:100A2000000170910101809102019091030120E089
:100A300030E040E05FE30E94B607609300017093EE
:100A40000101809302019093030186ED93E00E94DF
:100A5000CF0160910001709101018091020190919C
:100A6000030121E030E0AE014F5F5F4F0E943C0187
:100A7000CE0101960E94CF017301620184C08AEE0B
:100A800093E00E94CF016091040170910501072E4F
:100A9000000C880B990B0E94CD0821E030E0AE01DC
:100AA0004F5F5F4F0E943C01CE0101960E94CF0133
:100AB00084EC92E00E94CF0181E094E00E94CF019B
:100AC00060910001709101018091020190910301F8
:100AD00021E030E0AE014F5F5F4F0E943C01CE014C
:100AE00001960E94CF0184EC92E00E94CF0188E140
:100AF00094E00E94CF014AE0BE016F5F7F4FC701C3
:100B00000E949B0BCE0101960E94CF0184EC92E0E3
:100B10000E94CF018BE394E00E94CF014AE0BE0126
:100B20006F5F7F4FC2010E949B0BCE0101960E9416
:100B3000CF0184EC92E00E94CF018AE594E00E940C
:100B4000CF018091060190910701A0910801B09119
:100B500009014AE0BE016F5F7F4F0E949B0BCE01EF
:100B600001960E94CF01730162010DC0481459041F
:100B70006A047B0469F47501640105C073016201B4
:100B800002C0730162010130110509F082CD02C07B
:100B90007301620180918304909184049C012C195B
:100BA0003D09490122F488249924821A930A092CC8
:100BB000000CAA08BB08AC01092E000C660B770BD1
:100BC000C416D506E606F7060CF0E5C04AE0BE01FD
:100BD0006F5F7F4F0E949B0BCE0101960E94CF0159
:100BE00084EC92E00E94CF01A0910401B091050134
:100BF00020917A0430917B0440917C0450917D04D3
:100C00002F87388B498B5A8B40907E0450907F04FD
:100C10006090800470908104209100013091010166
:100C200040910201509103012B8B3C8B4D8B5E8BCD
:100C3000A50194010E94650B0E94CD086F8B788FEF
:100C4000898F9A8F6F85788989899A89641975093E
:100C5000860997090E94CD082FE632E143E85BE35D
:100C60000E9423080E9495089B01772324F42227E1
:100C70003327261B370BB901330F880B990B0E94C2
:100C8000CD082B893C894D895E890E9459099B01B9
:100C9000AC016F89788D898D9A8D0E94B7070E946B
:100CA000950860317742810591050CF068C0A091EC
:100CB0000401B091050120917A0430917B044091A8
:100CC0007C0450917D042F87388B498B5A8B409040
:100CD0007E0450907F046090800470908104209185
:100CE00000013091010140910201509103012B8BD1
:100CF0003C8B4D8B5E8BA50194010E94650B0E947D
:100D0000CD086F8B788F898F9A8F6F8578898989C5
:100D10009A8964197509860997090E94CD082FE6FA
:100D200032E143E85BE30E9423080E9495089B019F
:100D3000772324F422273327261B370BB901330FDF
:100D4000880B990B0E94CD082B893C894D895E89BF
:100D50000E9459099B01AC016F89788D898D9A8D0C
:100D60000E94B7070E949C08AAE8B0E011967C9305
:100D70006E93729A2601370101E010E099CC20E1D0
:100D800037E2EAE8F0E031832083729A26013701E6
:100D900001E010E08DCC4C155D056E057F050CF073
:100DA00083CC4AE0BE016F5F7F4F0E949B0BCE0158
:100DB00001960E94CF0184EC92E00E94CF01A091A5
:100DC0000401B091050120917A0430917B04409197
:100DD0007C0450917D042F87388B498B5A8B40902F
:100DE0007E0450907F046090800470908104209174
:100DF00000013091010140910201509103012B8BC0
:100E00003C8B4D8B5E8BA50194010E94650B0E946B
:100E1000CD086F8B788F898F9A8F6F8578898989B4
:100E20009A8964197509860997090E94CD082FE6E9
:100E300032E143E85BE30E9423080E9495089B018E
:100E4000772324F422273327261B370BB901330FCE
:100E5000880B990B0E94CD082B893C894D895E89AE
:100E60000E9459099B01AC016F89788D898D9A8DFB
:100E70000E94B7070E94950860317742810591056D
:100E80000CF068C0A0910401B091050120917A0492
:100E900030917B0440917C0450917D042F87388BE6
:100EA000498B5A8B40907E0450907F046090800460
:100EB0007090810420910001309101014091020164
:100EC000509103012B8B3C8B4D8B5E8BA5019401C4
:100ED0000E94650B0E94CD086F8B788F898F9A8F47
:100EE0006F85788989899A896419750986099709AE
:100EF0000E94CD082FE632E143E85BE30E9423081D
:100F00000E9495089B01772324F422273327261B70
:100F1000370BB901330F880B990B0E94CD082B8931
:100F20003C894D895E890E9459099B01AC016F89FA
:100F3000788D898D9A8D0E94B7070E949C08AAE837
:100F4000B0E011967C936E9372982601370101E010
:100F500010E0AECB20E137E2EAE8F0E03183208315
:100F600072982601370101E010E0A2CB5058BB2750
:100F7000AA270E94CE070C941F090E94110938F07D
:100F80000E94180920F039F49F3F19F426F40C94BC
:100F90000E090EF4E095E7FB0C940809E92F0E9476
:100FA000300958F3BA17620773078407950720F0D2
:100FB00079F4A6F50C9452090EF4E0950B2EBA2F95
:100FC000A02D0B01B90190010C01CA01A00111244F
:100FD000FF27591B99F0593F50F4503E68F11A16FB
:100FE000F040A22F232F342F4427585FF3CF46958C
:100FF00037952795A795F0405395C9F77EF41F16AE
:10100000BA0B620B730B840BBAF09150A1F0FF0F77
:10101000BB1F661F771F881FC2F70EC0BA0F621F63
:10102000731F841F48F4879577956795B795F79553
:101030009E3F08F0B0CF9395880F08F09927EE0FE8
:101040009795879508950E9437080C941F090E9470
:10105000180958F00E94110940F029F45F3F29F067
:101060000C94080951110C9453090C940E090E9418
:10107000300968F39923B1F3552391F3951B550B70
:10108000BB27AA2762177307840738F09F5F5F4F5B
:10109000220F331F441FAA1FA9F335D00E2E3AF09A
:1010A000E0E832D091505040E695001CCAF72BD0B2
:1010B000FE2F29D0660F771F881FBB1F2617370703
:1010C0004807AB07B0E809F0BB0B802DBF01FF2735
:1010D00093585F4F3AF09E3F510578F00C94080901
:1010E0000C9453095F3FE4F3983ED4F386957795CB
:1010F0006795B795F7959F5FC9F7880F911D9695EE
:10110000879597F90895E1E0660F771F881FBB1F49
:10111000621773078407BA0720F0621B730B840BF6
:10112000BA0BEE1F88F7E09508950E949C0868941A
:10113000B1110C94530908950E94380988F09F5703
:1011400098F0B92F9927B751B0F0E1F0660F771FEB
:10115000881F991F1AF0BA95C9F714C0B13091F0E1
:101160000E945209B1E008950C945209672F782F1C
:101170008827B85F39F0B93FCCF3869577956795A6
:10118000B395D9F73EF490958095709561957F4F12
:101190008F4F9F4F0895E89409C097FB3EF49095B8
:1011A0008095709561957F4F8F4F9F4F9923A9F040
:1011B000F92F96E9BB279395F695879577956795CF
:1011C000B795F111F8CFFAF4BB0F11F460FF1BC013
:1011D0006F5F7F4F8F4F9F4F16C0882311F096E9A6
:1011E00011C0772321F09EE8872F762F05C0662354
:1011F00071F096E8862F70E060E02AF09A95660F0D
:10120000771F881FDAF7880F9695879597F90895C5
:1012100097F99F6780E870E060E008959FEF80ECA9
:10122000089500240A94161617061806090608954C
:1012300000240A9412161306140605060895092EB2
:101240000394000C11F4882352F0BB0F40F4BF2B21
:1012500011F460FF04C06F5F7F4F8F4F9F4F089561
:1012600057FD9058440F551F59F05F3F71F0479557
:10127000880F97FB991F61F09F3F79F0879508953C
:10128000121613061406551FF2CF4695F1DF08C05B
:10129000161617061806991FF1CF86957105610578
:1012A00008940895E894BB2766277727CB0197F920
:1012B00008950E946C090C941F090E94110938F0CE
:1012C0000E94180920F0952311F00C9408090C9441
:1012D0000E0911240C9453090E94300970F3959F54
:1012E000C1F3950F50E0551F629FF001729FBB271D
:1012F000F00DB11D639FAA27F00DB11DAA1F649FB9
:101300006627B00DA11D661F829F2227B00DA11D6B
:10131000621F739FB00DA11D621F839FA00D611DF1
:10132000221F749F3327A00D611D231F849F600D12
:10133000211D822F762F6A2F11249F5750409AF03B
:10134000F1F088234AF0EE0FFF1FBB1F661F771FC7
:10135000881F91505040A9F79E3F510580F00C9492
:1013600008090C9453095F3FE4F3983ED4F3869543
:1013700077956795B795F795E7959F5FC1F7FE2B32
:10138000880F911D9695879597F90895FA01EE0FAC
:10139000FF1F309621053105A1F16115710561F43A
:1013A0008038BFE39B0749F168949038810561F06C
:1013B0008038BFEF9B0741F099234AF5FF3FE105D5
:1013C0003105210519F1E8940894E795D901AA237C
:1013D00029F4AB2FBE2FF85FD0F310C0FF5F70F47D
:1013E000A695E0F7F73950F019F0FF3A38F49F77F7
:1013F0009F930DD00F9007FC9058089546F00C94E1
:101400000E0960E070E080E89FE308954FE79F7762
:101410005F934F933F932F930E94C10A2F913F9167
:101420004F915F910E9459090C941E0A29F416F0FD
:101430000C9408090C9452090C940E090E94380966
:10144000A8F39638A0F707F80F92E8942BE33AEA4E
:1014500048EB5FE70E946F090F920F920F924DB712
:101460005EB70F920E94090BEEE0F1E00E94500A75
:101470004F915F91EF91FF91E595EE1FFF1F49F0AE
:10148000FE57E0684427EE0F441FFA95E1F74195B7
:10149000550B0E94830A0F9007FE0C94770A08955B
:1014A000DF93CF931F930F93FF92EF92DF927B0115
:1014B0008C01689406C0DA2EEF010E946C09FE01CF
:1014C000E894A5912591359145915591A6F3EF01A9
:1014D0000E94CE07FE019701A801DA9469F7DF9018
:1014E000EF90FF900F911F91CF91DF9108959B0195
:1014F000AC0160E070E080E89FE30C9423080C945A
:1015000008090C943D0B0E943809D8F39923C9F3BC
:10151000940F511DA3F39150504094F059F088233B
:1015200032F0660F771F881F91505040C1F79E3FE1
:1015300051052CF7880F911D9695879597F9089579
:101540005F3FACF0983E9CF0BB27869577956795FA
:10155000B79508F4B1609395C1F7BB0F58F711F434
:1015600060FFE8CF6F5F7F4F8F4F9F4FE3CF0C94AB
:10157000530916F00C943D0B0C940E0968940C94CE
:1015800008090E943809A8F39923C1F3AEF3DF9349
:10159000CF931F930F93FF92C92FDD2788232AF043
:1015A0002197660F771F881FDAF720E030E040E8C8
:1015B0005FEB9FE3883920F0803E38F021968F77EB
:1015C0000E94B707E6E3F1E004C00E94B707E3E634
:1015D000F1E00E94500A8B01BE01EC01FB2E6F5717
:1015E00071097595771F880B990B0E94CD0828E12A
:1015F00032E741E35FE30E946C09AF2D9801AE0131
:10160000FF900F911F91CF91DF910E94CE070C9414
:101610001F09FA01DC01AA0FBB1F9B01AC01BF57D8
:1016200028F4222733274427507820C0B75190F45C
:10163000AB2F0024469537952795011CA395D2F32F
:10164000002071F0220F331F441FB395DAF30ED040
:101650000C94B60761307105A0E88A07B94630F4EA
:101660009B01AC016627772788279078309621F078
:10167000208331834283538308959F3F31F09150FB
:1016800020F4879577956795B795880F911D969566
:10169000879597F9089597FB072E16F4009407D0C5
:1016A00077FD09D00E946D0B07FC05D03EF49095A4
:1016B00081959F4F0895709561957F4F0895EE0F26
:1016C000FF1F0590F491E02D0994B7FF0C94810B56
:1016D0000E94810B821B930B0895AA1BBB1B51E137
:1016E00007C0AA1FBB1FA617B70710F0A61BB70B92
:1016F000881F991F5A95A9F780959095BC01CD0137
:1017000008950E948C0BA59F900DB49F900DA49FEF
:10171000800D911D11240895A29FB001B39FC001B7
:10172000A39F700D811D1124911DB29F700D811D0D
:101730001124911D0895BB274A3031F4992322F4D6
:10174000BDE2909581959F4F0C94A70BBB27FB01A1
:101750005527AA27880F991FAA1FA41710F0A41BAA
:1017600083955051B9F7A05DAA3308F0A95DA19304
:10177000009779F7B111B1931192CB010C94C00B82
:10178000DC01FC01672F71917723E1F7329704C0E8
:101790007C916D9370836291AE17BF07C8F3089573
:0417A000F894FFCFEB
:1017A4000000004007005A00000057656C636F6D2D
:1017B400650A0054617267657420706F7369746997
:1017C4006F6E20696E206465677265652039302C00
:1017D400202D3336302C202B353A2000546172678B
:1017E400657420706F736974696F6E20696E20630D
:1017F4006F756E7473203A203633302C202D3138B7
:1018040037302C202D313833350043757272656EB4
:101814007420706F736974696F6E20696E20636FD2
:10182400756E74203A2000496E746572706F6C6135
:10183400746F7220697320696D706C656D656E7468
:10184400656420627920746F20706572666F726DB2
:1018540020666F6C6C6F77696E6720737465707344
:10186400200A00537465702031203A20526F74614D
:10187400746520746865206D6F746F7220666F7272
:1018840077617264203930206465677265657320FE
:101894000A00537465702032203A20486F6C64202B
:1018A400666F7220302E35207365636F6E6473200B
:1018B4000A00537465702033203A20526F746174A7
:1018C4006520696E207265766572736520666F7235
:1018D40020333630206465677265650A0053746589
:1018E400702034203A20486F6C6420666F72203078
:1018F4002E35207365636F6E6473200A005374651C
:10190400702035203A20526F746174656420666FCC
:10191400727761726420666F722035206465677225
:10192400656573200A00456E746572202750272070
:10193400746F20696E637265617365204B702062F9
:10194400792031200A00456E7465722027702720A3
:10195400746F206465637265617365204B702062E7
:10196400792031200A00456E7465722027442720AF
:10197400746F20696E637265617365204B642062C5
:101984007920302E350A00456E746572202764274D
:1019940020746F206465637265617365204B6420F5
:1019A400627920302E350A00456E74657220275600
:1019B4002720746F20766965772063757272656E6F
:1019C400742076616C756573206F66204B642C20DF
:1019D4004B702C2050722C20506D200A00456E74E0
:1019E40065722027742720746F20537461727420E9
:1019F400746865207472616A6563746F7279004EED
:101A04006577207265666572656E636520706F73B5
:101A14006974696F6E2073657420746F28696E2011
:101A24006465677265657329203A200A004E6577FC
:101A3400207265666572656E636520706F73697484
:101A4400696F6E2073657420746F203A200A004E0B
:101A540065772076616C7565206F66206B70203A1F
:101A6400200A004E65772076616C7565206F6620CC
:101A74006B64203A20004E65772076616C75652092
:101A84006F66206B64203A200A0043757272656E9B
:101A9400742076616C7565206F66206B70203A2027
:101AA4000043757272656E742076616C7565206F83
:101AB40066206B64203A20004D656173757265641D
:101AC40020706F736974696F6E2027506D272069C9
:101AD4006E20636F756E74203A20005265666572DD
:101AE400656E636520706F736974696F6E20696ECB
:101AF40020636F756E74203A2000526566657265C6
:101B04006E636520706F736974696F6E20696E20EF
:0A1B1400646567726565203A2000E1
:00000001FF
